:100000000C94C2050C94D11B0C94AA1B0C94EA0509
:100010000C94EA050C94EA050C94EA050C94EA05A4
:100020000C94EA050C94EA050C94EA050C94EA0594
:100030000C94EA050C94EA050C94EA050C94EA0584
:100040000C94601B0C94EA050C941E1C0C94F81B79
:100050000C94EA050C94501C0C94EA050C94EA05E7
:100060000C942A220C94EA0505A84CCDB2D44EB9C2
:100070003836A9020C50B9918688083CA6AAAA2A4B
:10008000BE000000803F005EBCE2613FDD83C29C99
:100090007E20A3FD1F41009D23BE46DB65F88C1129
:1000A000AF32CA57E9747C4F70656E456E657267F2
:1000B000794D6F6E69746F722E6F7267007C656D1B
:1000C0006F6E5069434D2056004C4344206E6F7450
:1000D00020666F756E64004C434420666F756E64D5
:1000E00020693263203078004F70656E456E65720E
:1000F00067794D6F6E00656D6F6E506920560050C8
:100100006C6561736520776169740050692069735B
:1001100020626F6F74696E672E2E2E004453313843
:100120004232302054656D700044657465637465B7
:10013000643A20004143204E4F5420446574656367
:100140007465640041432057617665204465746599
:100150006374656400290028002000200020007CD2
:10016000000A00202868696464656E292E002062F8
:1001700079746573002C20446174612073697A6519
:100180003A2000205369676E61747572653A2000E9
:100190007C004E6F206461746120626C6F636B2021
:1001A000666F756E64202D20454550524F4D20617D
:1001B00070706561727320746F20626520666F7263
:1001C0006D617474656420746F204F454D205374C5
:1001D000616E646172642062757420756E757365FA
:1001E000642E007C007C000A002062797465732C08
:1001F000206E6F7420666F726D6174746564207414
:100200006F204F454D205374616E646172640053DA
:10021000697A653A20007C000D0A7C436F6E66693E
:10022000672073617665640D0A7C007C536B65748E
:1002300063682072657374617274696E6720776990
:1002400074682064656661756C7420636F6E66699E
:10025000672E007C526573657474696E672E2E2E4E
:10026000002000207400200020002000206D0020CD
:1002700064002000206B3220002000206B31200021
:1002800020302E303000206B3020002066002061AE
:1002900063002061002069002067002070003900A1
:1002A0003800340020620020720053657474696E57
:1002B00067733A007C0020656E61626C65642E0095
:1002C00054656D7065726174757265206D656173DA
:1002D0007572656D656E74206973007C007C0053D7
:1002E000656E736F72206D6179206E6F7420626528
:1002F0002072656C6961626C6500200030007C00D2
:100300002C20776974682061646472657373657307
:100310002E2E2E0054656D706572617475726520A5
:1003200053656E736F727320666F756E64203D2027
:10033000007C002C2073656E736F727320666F757E
:100340006E643A20007C74656D705F656E61626CEE
:10035000653A20002C20706572696F643A20007C39
:1003600070756C736573323A20002C207065726969
:100370006F643A20007C70756C736573313A2000AD
:100380007C646174616C6F673A20002C204C65615D
:10039000643A20007C693243616C3A20002C204C86
:1003A0006561643A20007C693143616C3A20007CCD
:1003B0007643616C3A20007C667265713A20007C5D
:1003C00041432044657465637465643A20007C6130
:1003D0007373756D6564563A20007C43616C696285
:1003E000726174696F6E007C4E6F64652049443A97
:1003F00020007C47726F75703A20002064426D00C7
:100400007C506F7765723A20003931354D487A005B
:100410003836384D487A003433334D487A007C52B0
:10042000462042616E643A20007C526164696F3AF2
:1004300020007C53657474696E6773007C0A7C418C
:100440007661696C61626C6520636F6D6D616E646D
:10045000733A0A7C206C09092D206C69737420633F
:100460006F6E66696720287465727365290A7C203F
:100470004C09092D206C69737420636F6E6669677F
:100480002028766572626F7365290A7C20720909DB
:100490002D20726573746F72652064656661756C7A
:1004A0007473202620726573746172740A7C2073E1
:1004B00009092D207361766520746F2045455052DF
:1004C0004F4D0A7C207609092D2073686F772076BE
:1004D000657273696F6E0A7C20563C6E3E09092D69
:1004E00020766572626F7365206D6F64652C2031B4
:1004F000203E204F4E2C2030203E204F46460A7C86
:1005000020623C6E3E09092D2073657420722E66B0
:100510002E2062616E64206E203D2034203E203407
:1005200033334D487A2C2038203E203836384D4819
:100530007A2C2039203E203931354D487A20286DDB
:10054000617920726571756972652068617264777E
:10055000617265206368616E6765290A7C20703C62
:100560006E6E3E09092D2073657420722E662E2052
:10057000706F7765722E206E6E202830202D20330C
:100580003129203D202D31382064426D20746F20A8
:100590002B31332064426D2E2044656661756C7486
:1005A0003A20323520282B372064426D290A7C20DE
:1005B000673C6E6E6E3E092D207365742047726F26
:1005C000757020284F454D2064656661756C7420F8
:1005D0003D20323130290A7C206E3C6E6E3E090986
:1005E0002D20736574206E6F646520494420283186
:1005F0002E2E3630290A7C20633C6E3E09092D20C0
:10060000656E61626C65206F757470757420666FBD
:10061000722063616C6962726174696F6E2E206E04
:10062000203D20307C31200A7C20643C78782E7874
:100630003E092D20646174616C6F6767696E672085
:10064000706572696F64202873290A7C206B3C787E
:100650003E203C79792E793E203C7A7A2E7A3E0AE9
:100660007C09092D2043616C69627261746520699F
:100670006E7075743A0A7C09090978203D20302093
:100680003E20766F6C746167652C2031203E2063BC
:1006900074312C2032203E206374322C2065746328
:1006A0000A7C09090979792E79203D20766F6C74CE
:1006B0006167652F63757272656E742063616C6922
:1006C00062726174696F6E0A7C0909097A7A2E7AFE
:1006D000203D2070686173652063616C696272619E
:1006E00074696F6E2E20286374206F6E6C79290AEE
:1006F0007C090909652E672E206B30203235362E95
:10070000380A7C0909096B312039302E3920322E04
:1007100030300A7C20663C78783E09092D206672CC
:10072000657175656E637920283530206F722036CB
:1007300030290A7C20613C78782E783E092D206192
:100740007373756D656420766F6C7461676520697D
:1007500066206E6F20612E632E2070726573656E49
:10076000740A7C206D3C783E203C79793E092D202E
:100770006D657465722070756C736520636F756E3E
:1007800074696E673A0A7C09090978203D20302097
:100790003E20616C6C204F46462C2078203D203155
:1007A000203E20636F756E742031204F4E2C2078D0
:1007B000203D2032203E20636F756E742032204F22
:1007C0004E2C203C79793E203D2070756C7365205D
:1007D0006D696E696D756D20706572696F64202832
:1007E0006D7329202879206973206E6F74206E65DF
:1007F00065646564207768656E2078203D20302927
:100800000A7C207430203C793E092D2074656D707F
:10081000657261747572653A0A7C09090979203D2F
:100820002030203E204F46462C2079203D2031208C
:100830003E204F4E2C2059203D2032203E20536533
:10084000617263680A7C20743C783E203C79793E72
:10085000203C79793E203C79793E203C79793E20D4
:100860003C79793E203C79793E203C79793E203CA8
:1008700079793E0A7C0909096368616E67652073AE
:10088000656E736F72277320616464726573732081
:100890006F7220706F736974696F6E3A0A7C090910
:1008A0000978203D207468652073656E736F72202F
:1008B000706F736974696F6E20696E20746865204B
:1008C0006C6973742028312D6261736564290A7C18
:1008D0000909097979203D203820686578206279F6
:1008E000746573202D207468652073656E736F7254
:1008F000277320616464726573730A7C0909096552
:100900002E672E20203238203831203433203331E6
:100910002030372030302030302044390A7C09091B
:10092000094E2E422E2053656E736F727320434121
:100930004E4E4F5420626520616464656420626598
:10094000796F6E64207468652061727261792073BA
:10095000697A652E0A7C20543C6363633E5C6E09B1
:100960002D207472616E736D6974206120737472CE
:10097000696E672E0A7C20773C6E3E09092D206E39
:10098000203D2030203E20726164696F204F464632
:100990002C206E203D203120666F722052656365E9
:1009A000697665204F4E2C206E203D203220666FE8
:1009B00072205472616E736D6974204F4E2C206EDC
:1009C000203D203320666F7220626F7468204F4E86
:1009D0000A7C207A09092D207365742074686520CB
:1009E000656E657267792076616C75657320616EDE
:1009F000642070756C736520636F756E742873293D
:100A000020746F207A65726F0A7C203F09092D20BF
:100A100073686F77207468697320616761696E0A13
:100A20007C007C526164696F20006F6666006F6EA7
:100A3000007C566572626F7365206D6F646520007F
:100A40007C656D6F6E506920434D205600206442D6
:100A50006D007C703A20007C4E6F64652000206D34
:100A60007300436820323A2000206D7300436820F1
:100A7000313A20006F6666007C50756C7365733A7E
:100A80002000200020007C6B007C47726F75702076
:100A9000007C6672657120002073007C6461746163
:100AA0006C6F6720706572696F6420003931354D55
:100AB000487A003836384D487A003433334D487A16
:100AC000007C52462042616E64203D20007C4173D0
:100AD00073756D656420563A200020282D3029005A
:100AE00020004F4B20002000322000200031200049
:100AF0002C20663A002C207066323A002C204932B5
:100B00003A002C207066313A002C2049313A007CA2
:100B100056726D733A0020620A00202D3E20004F6D
:100B20004B0000000000240027002A000000000005
:100B3000250028002B00000000080002010000032F
:100B40000407000000000000000000000000230077
:100B5000260029000404040404040404020202021E
:100B60000202030303030303010204081020408070
:100B70000102040810200102040810207C000A0071
:100B80007C00492311241FBECFEFD8E0DEBFCDBFCC
:100B900026E0AAEDB1E001C01D92A93FB207E1F73E
:100BA00011E0A0E0B1E0E6E8F7E702C005900D92A1
:100BB000AA3DB107D9F715E0C2ECD5E004C02197F2
:100BC000FE010E944639C13CD107C9F70E94F924B1
:100BD0000C94C13B0C94000080912606E0912706FE
:100BE000F0912806F8949181282F209592239183E3
:100BF00078943DE743E050E0315029F1DA01119754
:100C0000F1F790819823C1F3F89492819223928313
:100C10009181982B91837894ABE7B7E01197F1F726
:100C2000F894918192239183A3E1B1E01197F1F7B8
:100C30009081982381E009F080E07894E3E6F6E083
:100C40003197F1F7089580E0089590912606E0919C
:100C50002706F0912806292F209580FF14C0F894CC
:100C60008281822382838181892B8183A3E2B0E008
:100C70001197F1F78281982B9283789487ED90E019
:100C80000197F1F70895F89482818223828381810C
:100C9000892B8183AFEFB0E01197F1F78281982B18
:100CA000928378948FE090E0EBCFFF920F931F93A5
:100CB000CF93DF93F82E062FC8E0D0E011E081E05B
:100CC0009F2D912309F480E00E942506110F2197A2
:100CD000B1F7011113C0F894E0912706F0912806AE
:100CE000918180912606809598239183E091270633
:100CF000F09128069281892382837894DF91CF91A5
:100D00001F910F91FF90089580912606E09127068C
:100D1000F0912806F8949181982B91832281382FA5
:100D2000309523232283A7E0B0E01197F1F791815A
:100D300093239183A3E2B0E01197F1F79081789427
:100D4000EFECF0E03197F1F7982381E009F480E0CF
:100D500008958230B8F4E82FF0E0EE0FFF1FE05B5B
:100D6000FE4F71836083813039F080916900836028
:100D700080936900E89A0895809169008C6080935F
:100D80006900E99A0895833081F028F4813099F060
:100D90008230A9F008958730A9F08830C9F08430F6
:100DA000B1F4809180008F7D03C0809180008F77A7
:100DB00080938000089584B58F7784BD089584B5AD
:100DC0008F7DFBCF8091B0008F778093B000089526
:100DD0008091B0008F7DF9CF1F93CF93DF93282FA1
:100DE00030E0F901EA5CF44F8491F901E859F44FDD
:100DF000D491F901EC5AF44FC491CC23A9F0162FE9
:100E000081110E94C306EC2FF0E0EE0FFF1FE45D9E
:100E1000F44FA591B4918FB7F894EC91111108C0DB
:100E2000D095DE23DC938FBFDF91CF911F91089582
:100E3000DE2BF8CFCF93DF9390E0FC01E859F44F1D
:100E400024918C5A944FFC0184918823C9F090E03E
:100E5000880F991FFC01EE5DF44FA591B491FC0140
:100E6000E45DF44FC591D49161110DC09FB7F89422
:100E70008C91209582238C938881282328839FBF7F
:100E8000DF91CF910895623051F49FB7F8943C916F
:100E9000822F809583238C93E8812E2BEFCF8FB701
:100EA000F894EC912E2B2C938FBFEACFCF93DF9346
:100EB000C82F60E00E941A07D0E0FE01E859F44F05
:100EC000E491A6E2B6E0EC93FE01EC5AF44FE49113
:100ED000F0E0EE0FFF1FE65BF44F859194911296C0
:100EE0009C938E9311971B961C921B971D961C9298
:100EF0001D971C961C921C971A961C921A9719966D
:100F00001C92199718961C92189717961C9217976F
:100F100016961C92169715961C92159714961C926D
:100F2000149713961C92DF91CF9108953FB7F894D0
:100F300080912D0590912E05A0912F05B09130053F
:100F400026B5A89B05C02F3F19F00196A11DB11D24
:100F50003FBFBA2FA92F982F8827BC01CD01620F60
:100F6000711D811D911D42E0660F771F881F991F1B
:100F70004A95D1F708958F929F92AF92BF92CF92E8
:100F8000DF92EF92FF924B015C010E9496076B018A
:100F90007C010E9496076C197D098E099F09683EA5
:100FA000734081059105A8F321E0821A9108A108F8
:100FB000B10888EEC80E83E0D81EE11CF11C811434
:100FC0009104A104B10429F7FF90EF90DF90CF9036
:100FD000BF90AF909F908F9008952FB7F894609135
:100FE000290570912A0580912B0590912C052FBF22
:100FF0000895089508950895DC01ED91FC91019004
:10100000F081E02D0994EF92FF920F931F93CF93FD
:10101000DF938C017B01D0E0C0E0F701EC0FFD1FF6
:101020006491662361F0D801ED91FC910190F0810B
:10103000E02DC8010995892B11F02196EECFCE0144
:10104000DF91CF911F910F91FF90EF900895AF9294
:10105000BF92CF92DF92EF92FF920F931F93CF93A5
:10106000DF936C017B018B01040F151FEB015E0107
:10107000AE18BF08C017D10759F06991D601ED919C
:10108000FC910190F081E02DC6010995892B79F73B
:10109000C501DF91CF911F910F91FF90EF90DF90ED
:1010A000CF90BF90AF900895FC01538D448D252FB4
:1010B00030E0842F90E0821B930B541710F0CF96F2
:1010C000089501970895FC01918D828D981761F024
:1010D000A28DAE0FBF2FB11D5D968C91928D9F5F3B
:1010E0009F73928F90E008958FEF9FEF08950F9375
:1010F0001F93CF93DF93EC010E94ED07609391055E
:1011000070939205809393059093940589E895E0F8
:101110000E94630897FF22C00E94ED07009191058D
:10112000109192052091930530919405601B710BED
:10113000820B930B00918D0510918E0520918F05E8
:10114000309190056017710782079307F8F290E0DD
:1011500080E0DF91CF911F910F910895888381E006
:1011600090E0F7CFFC01918D828D981731F0828D40
:10117000E80FF11D858D90E008958FEF9FEF0895A2
:101180000F931F930E94ED07609391057093920552
:10119000809393059093940589E895E00E94B208A6
:1011A00097FF1DC00E94ED070091910510919205D7
:1011B0002091930530919405601B710B820B930B6A
:1011C00000918D0510918E0520918F05309190052D
:1011D0006017710782079307F8F28FEF9FEF1F9157
:1011E0000F910895CF92DF92EF92FF92CF930E94DA
:1011F000C008FC0197FD4EC08D32910521F0C097CB
:101200000A9708F040C0C12CD12C7601C0E0E13033
:10121000F105D1F0ED32F105D9F1CF01C0970A9770
:1012200098F4AAE0B0E0A70196010E94EB386F01A4
:10123000FF0FEE08FF08C60ED71EE81EF91E80E35A
:10124000C81AD108E108F10889E895E00E9463080E
:101250000E94C008FC01C0970A97C8F2E130F1056E
:10126000B1F2CC2341F0F094E094D094C094C11C2E
:10127000D11CE11CF11CC701B601CF91FF90EF908A
:10128000DF90CF90089589E895E00E946308AFCF82
:10129000C1E0DACFC12CD12C7601EDCF8F929F9295
:1012A000AF92BF92CF92DF92EF92FF92CF93DF93F4
:1012B0000E94C008FC0197FD88C08D32910509F09D
:1012C0004CC0812C912C80E8A82E8FE3B82EC12C25
:1012D000D12C7601C0E0D0E0E130F10559F1ED32DA
:1012E000F10509F447C0EE32F10509F445C0CF011C
:1012F000C0970A97F8F4AAE0B0E0A70196010E940F
:10130000EB386F01FF0FEE08FF08C60ED71EE81E70
:10131000F91E80E3C81AD108E108F108CC2351F086
:101320002DEC3CEC4CEC5DE3C501B4010E94173898
:101330004B015C0189E895E00E9463080E94C008A7
:10134000FC01C0970A9740F2EE32F105B9F4CC23C4
:1013500019F2CD2FD11118C025C0C0970A9708F4F3
:10136000B0CFEE32F10509F4ACCF89E895E00E94E8
:1013700063089ECFD1E0DECFC1E0DCCFE130F105E4
:1013800009F4AACFDD2341F0F094E094D094C09406
:10139000C11CD11CE11CF11CC701B6010E94B83769
:1013A000CC2341F0C701B6010E94B837A5019401D2
:1013B0000E941738DF91CF91FF90EF90DF90CF9090
:1013C000BF90AF909F908F90089560E070E0CB0148
:1013D000F1CFFC01918D228D892F90E0805C9F4F91
:1013E000821B91098F739927089589E895E00E94DF
:1013F000E90921E0892B09F420E0822F089580E09B
:1014000090E0892B29F00E94F50981110C940000CD
:101410000895FC01A48DA80FB92FB11DA35ABF4F89
:101420002C91848D90E001968F739927848FA689E3
:10143000B7892C93A089B1898C91837080648C9337
:10144000938D848D981306C00288F389E02D8081E6
:101450008F7D80830895EF92FF920F931F93CF9318
:10146000DF93EC0181E0888F9B8D8C8D98131AC0DF
:10147000E889F989808185FF15C09FB7F894EE89C6
:10148000FF896083E889F989808183708064808323
:101490009FBF81E090E0DF91CF911F910F91FF906E
:1014A000EF900895F62E0B8D10E00F5F1F4F0F7316
:1014B0001127E02E8C8D8E110CC00FB607FCFACFD1
:1014C000E889F989808185FFF5CFCE010E94090A5C
:1014D000F1CFEB8DEC0FFD2FF11DE35AFF4FF082A2
:1014E0009FB7F8940B8FEA89FB8980818062CFCF08
:1014F000CF93DF93EC01888D8823B9F0AA89BB894B
:10150000E889F9898C9185FD03C0808186FD0DC035
:101510000FB607FCF7CF8C9185FFF2CF808185FF56
:10152000EDCFCE010E94090AE9CFDF91CF91089556
:10153000CF92DF92EF92FF920F931F93CF93DF939F
:10154000082F10E096E1899FE0011124C85CD94F73
:101550008E819F81A885B985892B8A2B8B2BA9F138
:101560000E94ED07CA88DB88EC88FD886C197D092C
:101570008E099F09CE80DF80E884F984C616D706DD
:10158000E806F90658F48E859F85A889B9890196E1
:10159000A11DB11D8E879F87A88BB98B0E94ED0777
:1015A00026E1209FF001219FF00D1124E85CF94F06
:1015B000628B738B848B958BDF91CF911F910F91F1
:1015C000FF90EF90DF90CF9008958E859F85A8893A
:1015D000B9890196A11DB11D8E879F87A88BB98BF4
:1015E000EBCF80E00C94980A81E00C94980A8091EB
:1015F0000A04882321F080910D0490E0089590E082
:1016000080E00895CF92DF92EF92FF920F931F93A5
:10161000CF93DF938091070190E025E09595879522
:101620002A95E1F78095909583709927C0EFD2E0D5
:1016300002C0D595C7958A95E2F720910F013091A8
:101640001001DE010E94543928E13CEF4FEF5FEFBB
:101650000E9427398091ED039091EE030197280FA6
:10166000391F309322032093210320E030E04AE722
:1016700054E460910B0170910C0180910D019091E7
:101680000E010E9417380E94573A8E01DD0F220B7F
:10169000330B6B017C01C01AD10AE20AF30AA701DD
:1016A0009601A8EEB3E00E94EB38685873418109B7
:1016B000910928E630E040E050E00E94053920938F
:1016C00068023093690240936A0250936B02DF9183
:1016D000CF911F910F91FF90EF90DF90CF900895E1
:1016E000CF92DF92EF92FF926B017C01C0920B01CF
:1016F000D0920C01E0920D01F0920E0160910F0169
:101700007091100190E080E00E94B637A701960129
:101710000E9417380E94573A7093EE036093ED03CE
:1017200020E034E244E759E4C701B6010E941738CB
:1017300020E030E040ED52E40E94DE390E94573A4A
:101740006093E8037093E9038093EA039093EB03BB
:10175000FF90EF90DF90CF900C94020B08952091B2
:101760001B02260F3327331F21323105ECF4209161
:101770005F05FC0190E080E0243069F082E008958C
:10178000A0911B022191AC0145505E4FA40FB52FD3
:10179000B11D2C930196861798F380911B02680F58
:1017A00060931B0280E0089581E0089510925F0528
:1017B00081E080935E051092390561E082E10E942C
:1017C000EC0661E083E10E94EC06E9EBF0E0808149
:1017D0008E7F808380818D7F808388E48093B800B2
:1017E00085E48093BC000895CF93DF9391E09093BC
:1017F000FA018823B9F0C091B800D091BA00809165
:10180000BC008A7B8093BC0060E082E10E94EC0611
:1018100060E083E10E94EC060E94D60BD093BA00F0
:10182000C093B800DF91CF910895CF92DF92EF92ED
:10183000FF920F931F93CF93DF93D091880581E0A0
:10184000D13208F09CC0C09187050E9496076B01B9
:101850007C0180915F0581116CC082E080935F05FF
:1018600081E080935E058FEF80935D0510925C05AB
:10187000D0935B05A7E6B5E0EBE3F5E080E0D81395
:101880008DC010923A0580913A05CC0FC82BC093B9
:101890003A0580913905813009F084C010923905EC
:1018A0000E9496076B017C0180913A058093BB00F2
:1018B0008091610590916205A0916305B0916405E6
:1018C000892B8A2B8B2BA1F00E9496070091610532
:1018D0001091620520916305309164056C197D09B2
:1018E0008E099F09061717072807390708F442C011
:1018F0008091BC0083FDD8CF85EC8093BC000E9412
:1019000096076B017C0180915F05823009F44CC021
:1019100080915D058F3F09F469C080915D0580323B
:1019200009F466C080915D05803309F463C084E0EA
:1019300026C08091610590916205A0916305B091E8
:101940006405892B8A2B8B2B09F483CF0E94960781
:101950000091610510916205209163053091640545
:101960006C197D098E099F09061717072807390783
:1019700008F06FCF809160050E94F40B85E0109213
:1019800066051092880510926505DF91CF911F9131
:101990000F91FF90EF90DF90CF9008959D919193DC
:1019A0008F5F6DCF85EEA9CF809161059091620523
:1019B000A0916305B0916405892B8A2B8B2B09F4C8
:1019C000A2CF0E94960700916105109162052091B7
:1019D0006305309164056C197D098E099F0906170E
:1019E00017072807390708F08ECFC4CF80E0C7CF8C
:1019F00082E0C5CF83E0C3CF0895E091E3038091F7
:101A0000E203E81730F4F0E0E652FE4F808190E008
:101A100008958FEF9FEF08959091E3038091E20383
:101A20002FEF3FEF981748F4E92FF0E0E652FE4F12
:101A3000208130E09F5F9093E303C9010895809176
:101A4000E2039091E303891B990B0895CF92DF92F3
:101A5000EF92FF920F931F93CF93DF937C01CB0103
:101A60008A0120916505222389F0EB016B01C40EE8
:101A7000D51ECC15DD0569F06991D701ED91FC917A
:101A80000190F081E02DC7010995F3CF642F0E94EA
:101A9000AF0BC801DF91CF911F910F91FF90EF9095
:101AA000DF90CF900895CF93DF931F92CDB7DEB72D
:101AB0006983209165052223F9F020918805203261
:101AC00058F021E030E0FC013383228390E080E095
:101AD0000F90DF91CF91089580916605E82FF0E097
:101AE000E959FA4F998190838F5F809366058093BF
:101AF000880581E090E0ECCF61E0CE0101960E9484
:101B0000AF0BF7CFFC01248131E0309365052093C2
:101B1000870510926605109288058385682B84E8F6
:101B200096E00E94530D0C94150C90E080E008950F
:101B3000CF93DF93D82FC62F60E08AE00E94EC0697
:101B4000DEBD0DB407FEFDCF8EB5CEBD0DB407FED4
:101B5000FDCFCEB561E08AE00E94EC068C2FDF91CC
:101B6000CF910895CF93DF93CDE5D1E0888188238D
:101B700031F0698180680E94980D2296F7CFDF913D
:101B8000CF91089560E00C94980DCF92DF92EF9280
:101B9000FF921F93CF93DF93162FEA0180933505B1
:101BA00020E1629FC0011124862794E0899F900163
:101BB00011248227807C8093360561E08AE00E94B0
:101BC000EC0661E08AE00E941A0761E08AE00E9468
:101BD0001A0761E08BE00E941A0760E08CE00E9427
:101BE0001A0761E08DE00E941A0780E58CBD8DB573
:101BF00081608DBD6AEA8FEA0E94980D8FE20E9493
:101C0000C20D8A3AB9F765E58FEA0E94980D8FE216
:101C10000E94C20D8535B9F70E94B20D0E94B20D27
:101C2000BE01DD0F880B990BAAE0B0E09B01AC016F
:101C30000E94EB38611521EE720725EF820725E03F
:101C4000920790F322E0660F771F881F991F2A954D
:101C5000D1F729E03DE340E050E00E9405396901F9
:101C60007A01CA01B9013AE096958795779567950B
:101C70003A95D1F787E80E94980DC701B60142E076
:101C800096958795779567954A95D1F788E80E944C
:101C9000980D6C2D6295660F660F607C89E80E9436
:101CA000980D612F80EBDF91CF911F91FF90EF9006
:101CB000DF90CF900C94980DCF93C82F8093380568
:101CC00081E00E94C20D837E682F6C2B81E80E9408
:101CD000980D87E20E94C20D87FFFBCFCF91089538
:101CE0001F93CF93DF93EC01FE011491112371F048
:101CF0001A3029F46DE089E895E00E94FC07612F15
:101D000089E895E00E94FC072196EECFDF91CF9104
:101D10001F91089561E089E00E94EC0664E170E0A3
:101D200080E090E00E94BB0760E089E00E94EC0642
:101D30006CE370E080E090E00E94BB0761E089E026
:101D40000E94EC0664E170E080E090E00E94BB0736
:101D500060E089E00C94EC06DF92EF92FF920F9323
:101D60001F93CF93DF9320913306211106C0E92EF4
:101D7000D82E0E94EC0581110FC0109231061092EE
:101D800033061092320680E0DF91CF911F910F91C0
:101D9000FF90EF90DF90089560E080EF0E9455067D
:101DA000D1E000E0F12CC1E00E948406182F0E94CF
:101DB00084061130E1F48130C9F5C134F0F2F092BB
:101DC0003106F11003C081E080933306809129062B
:101DD000882399F2A9E2B6E0ED2DFE2DCF010896F9
:101DE0002D912193E817F907D9F781E0CDCFE02FA6
:101DF000F0E0181311C080913106C817A8F4DF0174
:101E0000AA5DB94F13968C918D2381F410E0C930EF
:101E100010F4C0933206FC2EEA5DF94F83819D2FAA
:101E20009095892383830AC08C13F0CFE02FF0E0D4
:101E3000EA5DF94F83818D2B838311E0812F0E940E
:101E40002506CF5FDD0F11F40F5FD1E0083008F4F5
:101E5000ABCFB3CFDF92EF92FF920F931F93CF934D
:101E6000DF93CDB7DEB728970FB6F894DEBF0FBE6D
:101E7000CDBFE0900B04F0900C04E114F10439F0B4
:101E80000091DC031091DD030115110591F410920E
:101E90000A0410920D0428960FB6F894DEBF0FBE08
:101EA000CDBFDF91CF911F910F91FF90EF90DF9009
:101EB0000895D82E809154010E945607D0920A04AA
:101EC000DD2009F4ABC020E030E040E85FE3609142
:101ED0000B0170910C0180910D0190910E010E94F7
:101EE000B13787FF03C08FE180930701D0900701CE
:101EF00020911701F80110E080E395E7211721F008
:101F0000819391931F5FFACF10923106109233069E
:101F1000109232061092300610922F0610922E0662
:101F200010922D0610922C0610922B0610922A0663
:101F30001092290610920D04CE0101960E94AC0E5B
:101F4000882349F089818832B9F780910D048F5F29
:101F500080930D04F1CFF70180819091DB039923E9
:101F600079F1882369F110930D04E12FF0E0E1503D
:101F7000F04E93E0EE0FFF1F9A95E1F7EE0DFF1D77
:101F8000111115C010920D048832F9F010E0809103
:101F90000D041817D0F4F8E01F9FC00111248E0D16
:101FA0009F1D0E94AC0E882381F01F5FF0CF3897F1
:101FB0009085983219F410930D04E6CF1150E0CFBC
:101FC00090910D04191700F7F6CF0E94EC0560E020
:101FD0008CEC0E94550660E08EE40E94550660E09D
:101FE00080E00E94550660E080E00E94550660E0B7
:101FF0008D2D0E9455060E94EC0560E08CEC0E943D
:10200000550661E088E40E94550664E170E080E0D6
:1020100090E00E94BB070E94020B3DCF1091060189
:1020200017FDF9CF61E0812F0E941A0760E0812F30
:102030000E94EC0660E0812F0E941A07ECCF0F93FC
:102040001F93CF938C01C62F0E94820D6C2F64606A
:10205000C8010E94820D6C2F6B7FC8010E94820D07
:1020600083EC90E00197F1F7CF911F910F910895C4
:102070000F931F93CF93DF938C01D62FC42F607FD4
:10208000642B0E941F1080E1D89FB00111246C2B9B
:10209000C801DF91CF911F910F910C941F10CF9326
:1020A000DF93CDB7DEB728970FB6F894DEBF0FBE2B
:1020B000CDBF28E0E5E5F1E0DE01119601900D923B
:1020C0002A95E1F7FC012085261708F46FEF70E0F0
:1020D000660F771F21E030E02C0F3D1F620F731F4A
:1020E000FB016081606840E028960FB6F894DEBF7F
:1020F0000FBECDBFDF91CF910C94381040E061E06E
:102100000E9438108BE39FE10197F1F7089541E0B9
:102110000E94381081E090E00895FB0101900020BA
:10212000E9F73197AF01461B570BDC01ED91FC91AC
:102130000280F381E02D099468EB71E089E895E075
:102140000C948D10CF93DF93BC0189E895E00E9439
:102150000308EC010E949C108C0F9D1FDF91CF9112
:1021600008958F929F92AF92BF92EF92FF920F933A
:102170001F93CF93DF93CDB7DEB7A1970FB6F89437
:10218000DEBF0FBECDBF7C01FA01CB0119A2223008
:1021900008F42AE08E010F5D1F4F822E912CB12C86
:1021A000A12CBF01A50194010E940539F901CA01C2
:1021B0006A300CF5605DD8016E938D01232B242BC2
:1021C000252B79F790E080E0109721F0BD01C70141
:1021D0000E948D10A1960FB6F894DEBF0FBECDBF42
:1021E000DF91CF911F910F91FF90EF90BF90AF9033
:1021F0009F908F900895695CDECF242F462F50E08A
:1022000070E060E00C94B110CF93DF934AE050E0AF
:10221000682F89E895E00E94FD10EC010E949C1057
:102220008C0F9D1FDF91CF910895CF92DF92EF9297
:10223000FF920F931F93CF93DF936B01770FEE08FD
:10224000FF084A305105F1F42AE0F7FE1CC0EC010A
:102250006DE20E94FC078C0144275527BA014C19F6
:102260005D096E097F092AE0CE010E94B110800F3E
:10227000911FDF91CF911F910F91FF90EF90DF9011
:10228000CF900895242FB701A601DF91CF911F9120
:102290000F91FF90EF90DF90CF900C94B110CF93FF
:1022A000DF93AB01BC0189E895E00E941511EC01B8
:1022B0000E949C108C0F9D1FDF91CF9108952F924B
:1022C0003F924F925F926F927F928F929F92AF92C6
:1022D000BF92CF92DF92EF92FF921F93CF93DF9343
:1022E000EC016A017B01722EAB019601CB01B601B4
:1022F0000E946C3B6BEB71E0811126C046015701D7
:10230000E894B7F82FEF3FEF4FE75FE7C501B4015F
:102310000E946C3B81110CC02FEF3FEF4FE75FE74E
:10232000C501B4010E94B1376FEB71E0181664F07B
:102330002FEF3FEF4FE75FE4C701B6010E94193B63
:102340001816B4F463EC71E0CE01DF91CF911F91C8
:10235000FF90EF90DF90CF90BF90AF909F908F90C5
:102360007F906F905F904F903F902F900C948D10C6
:102370002FEF3FEF4FE75FECC701B6010E94B13787
:1023800087FDE0CF20E030E0A901C701B6010E943F
:10239000B137312C212C87FF09C06DE2CE010E949C
:1023A000FC071C01F7FAF094F7F8F09410E060E0F5
:1023B00070E080E09FE3711641F020E030E040E201
:1023C00051E40E94DE391F5FF6CFA70196010E94FB
:1023D0006D392B013C010E94573A4B015C012AE008
:1023E000BC01A401CE010E94B1107C01E20CF31CDF
:1023F0001123C1F1C501B4010E94B6379B01AC01A4
:10240000C301B2010E946C394B015C016EE2CE0146
:102410000E94FC07E80EF91E115020F120E030E088
:1024200040E251E4C501B4010E9417382B013C0180
:102430000E94573A4B01B12CA12C2AE0B501A4010E
:10244000CE010E94B110E80EF91EC501B4010E9430
:10245000B6379B01AC01C301B2010E946C394B013C
:102460005C01DACFC701DF91CF911F91FF90EF9010
:10247000DF90CF90BF90AF909F908F907F906F90A4
:102480005F904F903F902F900895CF93DF93AB01D3
:10249000BC0122E089E895E00E945F11EC010E94F6
:1024A0009C108C0F9D1FDF91CF9108950C945F11AC
:1024B0000C948D104AE050E061E089E895E00E94BC
:1024C000FD1067EC71E089E895E00E9458124AE03F
:1024D00050E060E089E895E00E94FD1067EC71E053
:1024E00089E895E00E94581280E00C9404114F9204
:1024F0005F926F927F928F929F92AF92BF92CF9294
:10250000DF92EF92FF921F93CF93DF93C82F6091DA
:102510000F017091100190E080E00E94B6376B01CE
:102520007C018091110190911201019618E6189F8B
:10253000B001199F700D1124072E000C880B990B08
:102540000E94B8372BED3FE049EC50E40E94173869
:10255000A70196010E94173820E034E244E759E4CD
:102560000E94DE394B015C01D0E0CE010196189F3C
:10257000B001199F700D1124072E000C880B990BC8
:102580000E94B837A70196010E94173820E034E274
:1025900044E759E40E94DE396B017C01CC0FDD1F5A
:1025A000CC0FDD1FFE01E85EFE4F20E030E044EB83
:1025B00053E460817181828193810E94DE399B01A5
:1025C000AC01C701B6010E946D392BED3FE049EC2B
:1025D00050E40E9417382B013C010E941E3B6B0106
:1025E0007C01C501B4010E941E3B9B01AC01C701E7
:1025F000B6010E94DE396B017C01FE01EE5AFD4FEF
:10260000C082D182E282F382C301B2010E94D93931
:102610002B013C01C501B4010E94D9399B01AC01D9
:10262000C25CDD4FC701B6010E9417389B01AC01A7
:10263000C301B2010E946C39688379838A839B83CA
:10264000DF91CF911F91FF90EF90DF90CF90BF90DF
:10265000AF909F908F907F906F905F904F90089574
:102660002F923F924F925F926F927F928F929F92A2
:10267000AF92BF92CF92DF92EF92FF920F931F9390
:10268000CF93DF93CDB7DEB7CD57D1090FB6F8940E
:10269000DEBF0FBECDBF809120038823E1F01092F2
:1026A000200380910A048823B1F01091060117FDE0
:1026B00008C061E0812F0E941A0761E0812F0E940B
:1026C000EC060E94EC0560E08CEC0E94550661E08F
:1026D00084E40E945506C090EC03CAAACC2009F4F9
:1026E0008BC61092EC03F8942091110130911201E5
:1026F00090E080E0821793070CF060C0FC01ED5F72
:10270000FB4F4081411158C0FC0143E0EE0FFF1F19
:102710004A95E1F7DF01A850BD4F1C9211961C921B
:10272000119712961C92129713961C921397149657
:102730001C92149715961C92159716961C92169734
:1027400017961C92DF01A053BD4F1C9211961C924C
:10275000119712961C92129713961C921397149627
:102760001C92149715961C92159716961C92169704
:1027700017961C92DF01A855BD4F1C9211961C9212
:10278000119712961C92129713961C9213971496F7
:102790001C92149715961C92159716961C921697D4
:1027A00017961C92E058FD4F1082118212821382FC
:1027B000148215821682178201969CCF08E316E0D8
:1027C000F12CE12C9BEFC92E97E0D92E26E1B22EF9
:1027D000D80111968C911197882369F18C918823E7
:1027E000B9F062E014968C910E941A0761EF7AE0CA
:1027F00080913D06E114F10421F064EF7AE08091CC
:1028000053060E94A90617C0EE24E394F12CE0CFF2
:10281000F8018581823060F4E82FF0E0813009F41E
:10282000D4C4E898EE0FFF1FE05BFE4FD182C08258
:10283000D80111961C92BE9CF001BF9CF00D112492
:10284000E85CF94F86859785A089B189892B8A2B09
:102850008B2BC9F04685578560897189D8011A96F6
:102860004D905D906D907C901D97440D551D661D9B
:10287000771D1A964D935D936D937C931D971686E5
:102880001786108A118A0A5E1F4FEA94EF2809F012
:10289000BBCF789420917002309171024091720206
:1028A000509173026091740270917502809176026A
:1028B0009091770240906C0250906D0260906E0291
:1028C00070906F02109178020091790230907A0234
:1028D00020907B02C0907C02CE86D0907D02DC8A64
:1028E000E0907E02E88EF0907F02FA8EC09078022F
:1028F000CC8ED0907902D8A2E0907A02ECA2F0902F
:102900007B02FEA2C0907C02CAA6D0907D02D88A2B
:10291000E0907E02EEA6F0907F02F8AAC0906C02D2
:10292000D0906D02E0906E02F0906F02CA86DB8656
:10293000EC86FD8680906C0290906D02A0906E02F5
:10294000B0906F020E948C3A6B017C01C301B2010E
:102950000E94B8379B01AC01C701B6010E94DE3965
:102960006B017C01212F302F432D522D6E857C89E8
:10297000888D9A8D0E94863A2B013C012C8D38A1BE
:102980004CA15EA16AA578898EA598A90E94863A75
:102990009B01AC01C301B2010E9417382B013C011D
:1029A0006A857B858C859D850E94B8379B01AC012B
:1029B000C301B2010E94DE392B013C01C501B40103
:1029C0000E94B8379B01AC01C301B2010E94DE39FD
:1029D0009B01AC01C701B6010E946C390E942C3BDF
:1029E000C0904001D0904101E0904201F09043013D
:1029F000CC8EDD8EEE8EFF8EA70196010E941738D9
:102A000068A379A38AA39BA36093380470933904C5
:102A100080933A0490933B04E0901101F0901201EE
:102A2000FDA2ECA280906C0290906D02A0906E02CC
:102A3000B0906F026091E8037091E9038091EA031E
:102A40009091EB030E94B6376B017C01ACA1BDA154
:102A50001196A50194010E945B390E94B8379B0131
:102A6000AC01C701B6010E94DE396C8B7D8B8E8B69
:102A70009F8B60910F017091100190E080E00E94A7
:102A8000B6372C893D894E895F890E94173860933B
:102A90003C0470933D0480933E0490933F04F09077
:102AA00040042C96FFAE2C97C0904801D09049016D
:102AB000E0904A01F0904B016096CCAEDDAEEEAEF8
:102AC000FFAE6097C0900B01D0900C01E0900D011B
:102AD000F0900E01CAA6DBA6ECA6FDA624E234E027
:102AE000398F288F4FEE53E05B8F4A8F8AE194E055
:102AF0009F878E87A1E4B4E0BB87AA87EEE3F2E06C
:102B0000FEABEDAB22E532E03CAB2BAB4CE251E04F
:102B100059AB48AB85E594E09FA78EA7312C212CBB
:102B2000CCA0DDA02C143D040CF07DC3B101A3E0CA
:102B3000660F771FAA95E1F7FB01E850FD4FD080A3
:102B40006196DFAE6197E1806296EFAE6297F280A8
:102B50006396FFAE6397C3806496CFAE6497D480CC
:102B60006596DFAE6597E5806696EFAE6697F68070
:102B70006796FFAE6797C7806896CFAE6897ADA996
:102B8000BEA9CD90DD90ED90FD90BEABADABCFAAD0
:102B9000D8AEE9AEFAAEFB01E053FD4FC0806996B6
:102BA000CFAE6997D1806A96DFAE6A97E2806B9666
:102BB000EFAE6B97F3806C96FFAE6C97C4806D960A
:102BC000CFAE6D97D5806E96DFAE6E97E6806F962E
:102BD000EFAE6F97F780A096FFAEA097ABA9BCA908
:102BE000CD90DD90ED90FD90BCABABABCBAEDCAE51
:102BF000EDAEFEAEC0906C02D0906D02E0906E0221
:102C0000F0906F022396CCAEDDAEEEAEFFAE239712
:102C1000D0907802A196DFAEA197E0907902A296BB
:102C2000EFAEA297F0907A02A396FFAEA397C09062
:102C30007B02A496CFAEA497D0907C02A596DFAE7F
:102C4000A597E0907D02A696EFAEA697F0907E0243
:102C5000A796FFAEA797C0907F02A896CFAEA89781
:102C60009B0120583D4F7901D901BC91A996BFAF76
:102C7000A997F901F181AA96FFAFAA97D9011296F7
:102C8000BC91AB96BFAFAB97F901F381AC96FFAFA8
:102C9000AC97D9011496BC91AD96BFAFAD97F90131
:102CA000F581AE96FFAFAE97D9011696BC91AF965F
:102CB000BFAFAF97F901F781E096FFAFE0972091A2
:102CC0006C0230916D0240916E0250916F02279616
:102CD0002CAF3DAF4EAF5FAF279780916C029091C4
:102CE0006D02A0916E02B0916F022B968CAF9DAFDA
:102CF000AEAFBFAF2B97A8A9B9A92D913D914D912A
:102D00005D91B9ABA8AB2EA33FA348A759A7DB01A0
:102D1000A855BD4F2C9111963C91119712964C914C
:102D2000129713965C91139714966C9114971596BD
:102D30007C91159716968C91169717969C9180907A
:102D40006C0290906D02A0906E02B0906F02F7013D
:102D500010810181C280E196CFAEE197D380E296E7
:102D6000DFAEE297C480E396CFAEE397D580E496DA
:102D7000DFAEE497C680E596CFAEE597D780E696BE
:102D8000DFAEE697C080E796CFAEE797D180E896B2
:102D9000DFAEE897C280E996CFAEE997D380EA9696
:102DA000DFAEEA97C480EB96CFAEEB97D580EC967A
:102DB000DFAEEC97C680ED96CFAEED97D780EE965E
:102DC000DFAEEE9740906C0250906D0260906E0204
:102DD00070906F02C0906C02D0906D02E0906E0215
:102DE000F0906F02C88AD98AEA8AFB8A0E948C3ADC
:102DF0006B017C01C501B4010E94B8379B01AC0195
:102E0000C701B6010E94DE396B017C01212F302FF2
:102E1000E1964FADE197E2965FADE297E3966FAD35
:102E2000E397E4967FADE497E5968FADE597E69658
:102E30009FADE6970E94863A4B015C01E7962FAD65
:102E4000E797E8963FADE897E9964FADE997EA96A0
:102E50005FADEA97EB966FADEB97EC967FADEC9795
:102E6000ED968FADED97EE969FADEE970E94863A68
:102E70009B01AC01C501B4010E9417384B015C01F4
:102E8000C301B2010E94B8379B01AC01C501B40176
:102E90000E94DE394B015C01688979898A899B89A6
:102EA0000E94B8379B01AC01C501B4010E94DE3914
:102EB0009B01AC01C701B6010E946C390E942C3BFA
:102EC0009B01AC016EA17FA188A599A50E9417382E
:102ED0006B017C01AEA5BFA5CD92DD92ED92FD9276
:102EE000BFA7AEA7AA8DBB8D2D913D914D915C9151
:102EF000288B398B4A8B5B8B2C96BFAD2C97BB23D1
:102F000009F46DC161962FAD619762963FAD6297EE
:102F100063964FAD639764965FAD649765966FADAA
:102F2000659766967FAD669767968FAD679768964B
:102F30009FAD68970E94863A2FA938AD49AD5AAD2A
:102F40000E9417384B015C0169962FAD69976A960C
:102F50003FAD6A976B964FAD6B976C965FAD6C9774
:102F60006D966FAD6D976E967FAD6E976F968FADC8
:102F70006F97A0969FADA0970E94863A2BAD3CAD6F
:102F80004DAD5EAD0E9417389B01AC01C501B40187
:102F90000E946D394B015C0123966CAD7DAD8EAD09
:102FA0009FAD23970E94B8379B01AC01C501B401C6
:102FB0000E94DE394B015C01A1962FADA197A2962C
:102FC0003FADA297A3964FADA397A4965FADA497EC
:102FD000A5966FADA597A6967FADA697A7968FAD40
:102FE000A797A8969FADA8970E94863A2B013C010F
:102FF000A9962FADA997AA963FADAA97AB964FADCC
:10300000AB97AC965FADAC97AD966FADAD97AE9606
:103010007FADAE97AF968FADAF97E0969FADE0973F
:103020000E94863A9B01AC01C301B2010E9417388D
:103030002B013C0127966CAD7DAD8EAD9FAD2797E2
:103040000E94B8379B01AC01C301B2010E94DE3976
:103050002B013C012B966CAD7DAD8EAD9FAD2B97BA
:103060000E94B8379B01AC01C301B2010E94DE3956
:103070009B01AC01C501B4010E946C392C8D3D8DC2
:103080004E8D5F8D0E9417382EA13FA148A559A5EE
:103090000E9417384B015C01A701960168A179A134
:1030A0008AA19BA10E9417389B01AC01C501B40104
:1030B0000E94DE396B017C0126E636E646E85FE3D6
:1030C0000E94193B18160CF482C026E636E646E844
:1030D0005FEBC701B6010E94B13787FD78C0A70139
:1030E0009601C701B6010E946C3B811170C0EA8550
:1030F000FB85C082D182E282F38220E030E040E0B2
:103100005FE3C501B4010E946D390E94503AEE851B
:10311000FF85718360832AA53BA54CA55DA5C501EC
:10312000B4010E9417382C893D894E895F890E941D
:10313000DE39288939894A895B890E946D396B019A
:103140007C0120E030E041E655E40E94DE390E9437
:10315000503AA88DB98D0D911D912D913D91B98F4A
:10316000A88FFD013497072E000C880B990B060FD2
:10317000171F281F391F00831183228333830E9466
:10318000B83720E030E041E655E40E9417389B0153
:10319000AC01C701B6010E946C39EA8DFB8D6193C9
:1031A000719381939193FB8FEA8FFFEF2F1A3F0A60
:1031B0002E853F852E5F3F4F3F872E874A855B8553
:1031C0004C5F5F4F5B874A87ABCCE9982BCBAA85D6
:1031D000BB851D921D921D921C9213978ECF6096F7
:1031E0002CAD3DAD4EAD5FAD60970E9417386B01C1
:1031F0007C01AA85BB851D921D921D921C9213977E
:1032000020E030E040E05FE30E946D390E94503AD8
:10321000EE85FF85718360832AA53BA54CA55DA53E
:10322000C701B6017ECF40900A04442009F4E4C0EF
:10323000512C3E015AE0650E711CF0EC8F2EF6E722
:103240009F2E80910D045816A8F090911701282FF9
:1032500030E0220F331FE091DC03F091DD03E20F39
:10326000F31F20E335E7891708F0BEC0219331939F
:103270008F5FF9CF2DEC3CEC4CE45EE360910B01E9
:1032800070910C0180910D0190910E010E94B13757
:10329000052D10E087FF0CC0000F111FE091DC032B
:1032A000F091DD03E00FF11F918280825394C9CF2A
:1032B0000E94EC05882381F3C0900B04D0900C048D
:1032C000C80163E0880F991F6A95E1F7C80ED91EFF
:1032D000D6018C91882301F360E085E50E945506B4
:1032E0007601B8E0EB0EF11C60E0F60181916F0110
:1032F0000E945506CE14DF04B9F760E08EEB0E9401
:1033000055069E012F5F3F4F7901690158E0A52EB8
:10331000B12C312C222423940E948406811132285E
:10332000220C31E0A31AB108B9F7D6013D926D0124
:10333000A615B70559F729E0E0E0215099F0D7012B
:103340008D917D018E27E82FEF70F0E0EA57FF4F57
:103350009491E82FE295EF70F0E0EA56FF4FE49188
:10336000E927EBCF89858E1336C089819A81B6E033
:10337000B89F9001B99F300D11249595879595952B
:103380008795820F931F2D81211102C080EC96E753
:103390002F812C3021F48433E1E29E07F9F0803C48
:1033A000F6E79F0731F09C0124583A4E2135364408
:1033B000C0F4000F111F2091DC033091DD03020FD8
:1033C000131FD8018D939C9361E070E080E090E042
:1033D0000E94BB076BCF80EC96E7D5CF80EC96E7D9
:1033E000E8CF88EF95E7E5CF60E0809106010E9485
:1033F000EC06109267024AAA8AA9C358DF4F0FB69B
:10340000F894DEBF0FBECDBFDF91CF911F910F911A
:10341000FF90EF90DF90CF90BF90AF909F908F90F4
:103420007F906F905F904F903F902F900895FC0198
:10343000808191810C94D538CF92DF92EF92FF92E8
:103440000F931F93CF93DF9300D0CDB7DEB76C01FE
:103450007C0103E010E01A830983CE0101960E94EB
:10346000171AF70181937F010F5F1F4F0730110576
:1034700091F7C6010F900F90DF91CF911F910F919F
:10348000FF90EF90DF90CF900895AF92BF92CF92D0
:10349000DF92EF92FF920F931F93CF93DF9300D0B1
:1034A000CDB7DEB76C015B0160E87BE089E895E0B1
:1034B0000E94030810E000E00A151B050CF042C052
:1034C0007801EC0CFD1CFA82E982CE0101960E9483
:1034D000171A803128F460E389E895E00E94FC0720
:1034E0000F5F1F4FFA82E982CE0101960E94171AE0
:1034F00040E150E0682F89E895E00E94FD1068EDFA
:1035000071E089E895E00E945812C80187709927F8
:10351000892B31F468ED71E089E895E00E9458123A
:10352000C8018F709927892B39F66EE77BE089E80F
:1035300095E00E9403086CE77BE089E895E00E9433
:103540000308BACF0F900F90DF91CF911F910F9189
:10355000FF90EF90DF90CF90BF90AF9008950F93C2
:103560001F93CF93DF9300D000D0CDB7DEB78C018F
:103570001A821982CE0101960E94171A8F3411F512
:1035800081E090E09A838983CE0101960E94171A08
:103590008534C1F482E090E09A838983CE0101965C
:1035A0000E94171A8D3471F481E00115110559F04C
:1035B000CE0101960E941C1A81E02B813C812017CC
:1035C000310709F080E00F900F900F900F90DF917E
:1035D000CF911F910F9108951F93CF93DF93EC012B
:1035E000162F0E94171A811729F0612F888199815F
:1035F0000E94DD38CE01DF91CF911F910895CF92C7
:10360000DF92EF92FF920F931F93CF93DF9300D03F
:10361000CDB7DEB76C017C0103E010E01A830983AB
:10362000F70161917F01CE0101960E94EC1A0F5FB4
:103630001F4F0730110591F7C6010F900F90DF91D2
:10364000CF911F910F91FF90EF90DF90CF90089551
:1036500085ED8093BC008091610590916205A091F9
:103660006305B09164050796A11DB11D23E0B695D1
:10367000A795979587952A95D1F72091BC0024FDB1
:1036800003C010925F050895409161055091620555
:103690006091630570916405452B462B472B69F3B8
:1036A0000097A105B10541F025E32A95F1F7000047
:1036B0000197A109B109E1CF809160050C94F40B49
:1036C0001F920F920FB60F9211242F933F938F9357
:1036D0009F93AF93BF938091290590912A05A09164
:1036E0002B05B0912C053091280523E0230F2D37B1
:1036F00058F50196A11DB11D209328058093290539
:1037000090932A05A0932B05B0932C0580912D054D
:1037100090912E05A0912F05B09130050196A11D25
:10372000B11D80932D0590932E05A0932F05B09386
:103730003005BF91AF919F918F913F912F910F9045
:103740000FBE0F901F90189526E8230F0296A11D1B
:10375000B11DD2CF1F920F920FB60F9211242F934B
:103760003F934F935F936F937F938F939F93AF9309
:10377000BF93EF93FF93E0915201F09153010995AC
:10378000FF91EF91BF91AF919F918F917F916F9139
:103790005F914F913F912F910F900FBE0F901F900F
:1037A00018951F920F920FB60F9211242F933F93EB
:1037B0004F935F936F937F938F939F93AF93BF9339
:1037C000EF93FF93E0915001F09151010995FF9122
:1037D000EF91BF91AF919F918F917F916F915F9189
:1037E0004F913F912F910F900FBE0F901F90189502
:1037F0001F920F920FB60F9211242F933F934F9366
:103800005F936F937F938F939F93AF93BF93EF9348
:10381000FF9389E895E00E94090AFF91EF91BF911B
:10382000AF919F918F917F916F915F914F913F9158
:103830002F910F900FBE0F901F9018951F920F920F
:103840000FB60F9211242F938F939F93EF93FF93B3
:10385000E0919905F0919A058081E0919F05F091A2
:10386000A00582FD1BC090818091A2058F5F8F73A0
:103870002091A305821741F0E091A205F0E0E757FF
:10388000FA4F958F8093A205FF91EF919F918F91B1
:103890002F910F900FBE0F901F9018958081F4CF3D
:1038A0001F920F920FB60F9211242F923F924F92B8
:1038B0005F926F927F928F929F92AF92BF92CF92C0
:1038C000DF92EF92FF920F931F932F933F934F93AB
:1038D0005F936F937F938F939F93AF93BF93EF9378
:1038E000FF93CF93DF9300D01F92CDB7DEB7409008
:1038F0007800509079008091DA03E2E0E80F20919F
:10390000110130911201E217130621F01CF0E1E0E1
:10391000E80FE21BF0E0E050FF4F8081805C809375
:103920007C008091E4039091E503A091E603B091BF
:10393000E7030196A11DB11D8093E4039093E50375
:10394000A093E603B093E7038091DA038111D3C219
:103950008091D8039091D9039093D7038093D60395
:103960008091360690913706969587959201281B8F
:10397000390B3093D9032093D8038091D4039091CD
:10398000D503AC015695479556954795841B950BE5
:10399000A90137FF04C044275527421B530B840F4E
:1039A000951F9093D5038093D40341E06091340632
:1039B000709135066817790708F040E0409340049D
:1039C000121613060CF0B5C081E090E09093D3037B
:1039D0008093D2032091D2033091D3038091BC0312
:1039E0009091BD032817390709F4A8C08091660299
:1039F0008F5F8093660280916602833030F0109270
:103A000066023093BF032093BE0380912503882371
:103A1000B1F087E080937A0080917A00806880938B
:103A20007A0080917A0080937A0080917A00809366
:103A30007A0080917A0080937A001092250360903A
:103A4000BE037090BF03209111013091120180914B
:103A50004004882309F481C38091BC039091BD0385
:103A600041E06416710409F0D2C1019709F4D5C18F
:103A700080912303909124030196909324038093D3
:103A8000230340910A01442309F47BC040910801BB
:103A9000509109018417950708F473C010920A0128
:103AA00010922403109223030AE8E02E03E0F02E84
:103AB000A2E6B3E00AE313E046E253E090E080E0E0
:103AC00082179307F4F5F701108211821282138294
:103AD0001482158216821782F8E0EF0EF11C1C92F8
:103AE00011961C92119712961C92129713961C9283
:103AF000139714961C92149715961C921597169668
:103B00001C92169717961C9217971896F801108218
:103B10001182128213821482158216821782085F24
:103B20001F4FFA011192119211921192AF01019659
:103B3000C7CF1092D3031092D2034CCF10926602DB
:103B40005ACF1092C4031092C5031092C60310926C
:103B5000C7031092C8031092C9031092CA031092AF
:103B6000CB031092C0031092C1031092C2031092B3
:103B7000C3031092CE031092CF031092D003109281
:103B8000D10380912303909124034091210350910C
:103B900022038417950739F440910A01411103C0AB
:103BA00041E0409320034091ED035091EE038417D0
:103BB000950708F432C180910A0181112EC110923B
:103BC0002403109223036AE873E07B836A83A2E6EE
:103BD000B3E01AE3212E13E0312E66E273E050E0E9
:103BE00040E0421753070CF0A0C0EA81FB818080BF
:103BF0009180A280B380C480D580E680F78038961B
:103C0000FB83EA83CA01E3E0880F991FEA95E1F795
:103C10008C0108501D4FF80180829182A282B382EC
:103C2000C482D582E682F7828C9011969C9011977F
:103C30001296AC9012971396BC9013971496CC9052
:103C400014971596DC9015971696EC901697179684
:103C5000FC90179718968C0100531D4FF801808235
:103C60009182A282B382C482D582E682F7820A81DF
:103C70001B8108501109F8011082118212821382EF
:103C800014821582168217828D0108501109F801DD
:103C90001082118212821382148215821682178278
:103CA000F10180809180A280B380C480D580E680BD
:103CB000F780F8E02F0E311C8C0108551D4FF801DC
:103CC00080829182A282B382C482D582E682F78208
:103CD000810108501109F8011082118212821382A9
:103CE0001482158216821782FB0181909190A19017
:103CF000B190BF0175016401FF0CCC08DC2C76018A
:103D000080589D4FFC0180829182A282B382C4823E
:103D1000C582C682C782CB010497FC011082118242
:103D2000128213824F5F5F4F5CCF8091C0039091EE
:103D3000C103A091C203B091C303AC01BD01770FD1
:103D4000440B542FBA018093780290937902A09388
:103D50007A02B0937B0240937C0240937D024093B1
:103D60007E0240937F027091C4036091C50350911D
:103D7000C6034091C7033091C8032091C9039091B5
:103D8000CA038091CB0370937002609371025093C9
:103D900072024093730230937402209375029093E1
:103DA0007602809377021092C4031092C50310929A
:103DB000C6031092C7031092C8031092C903109251
:103DC000CA031092CB031092C0031092C103109249
:103DD000C2031092C3038091CE039091CF03A091B0
:103DE000D003B091D10380936C0290936D02A093A5
:103DF0006E02B0936F021092CE031092CF03109216
:103E0000D0031092D10381E08093EC0306C0892B8C
:103E100021F01092CD031092CC038091CE039091AB
:103E2000CF03A091D003B091D1030196A11DB11D84
:103E30008093CE039093CF03A093D003B093D1038C
:103E40008091CC039091CD0301969093CD03809304
:103E5000CC03E091D803F091D9039F01DF010E94C8
:103E60004C396B017C01FF0CCC08DC2C76019B01EA
:103E7000AC016C2D7C2D8C2D9C2DA090C403B0909A
:103E8000C503C090C603D090C703E090C803F0906C
:103E9000C9030091CA031091CB030E946339209398
:103EA000C4033093C5034093C6035093C703609384
:103EB000C8037093C9038093CA039093CB03CF01C7
:103EC000FF0FAA0BBB0B4091C0035091C10360913F
:103ED000C2037091C303840F951FA61FB71F809361
:103EE000C0039093C103A093C203B093C303709225
:103EF000BD036092BC03E091DA03E98320901101D5
:103F000030901201EE2309F4F8C08E2E912C281463
:103F100039040CF4F2C0F1E08F1A9108F401ED5F5E
:103F2000FB4F46E0441651040CF492C281E08083BA
:103F3000F401EE0FFF1FEE54FC4F80913606909176
:103F400037069695879560807180681A790AF40122
:103F500033E0EE0FFF1F3A95E1F7BF0166577C4F44
:103F60007B836A83A091D603B091D70393010E940B
:103F70004C396B017C01FF0CCC08DC2C76019B01D9
:103F8000AC016C2D7C2D8C2D9C2DAA81BB81AC901D
:103F90001196BC9011971296CC9012971396DC90C4
:103FA00013971496EC9014971596FC901597169607
:103FB0000C91169717961C9117970E9463392C93B2
:103FC00011963C93119712964C93129713965C930B
:103FD000139714966C93149715967C9315971696D1
:103FE0008C93169717969C93BF016E597C4F7B83D9
:103FF0006A83A091D803B091D90393010E944C39F0
:104000006B017C01FF0CCC08DC2C76019B01AC0120
:104010006C2D7C2D8C2D9C2DAA81BB81AC90119692
:10402000BC9011971296CC9012971396DC90139730
:104030001496EC9014971596FC90159716960C9183
:10404000169717961C9117970E9463392C93119617
:104050003C93119712964C93129713965C93139777
:1040600014966C93149715967C93159716968C93CB
:10407000169717969C93E65CFC4F9301D3010E9420
:104080004C396B017C01FF0CCC08DC2C76019B01C8
:10409000AC016C2D7C2D8C2D9C2DA080B180C2801C
:1040A000D380E480F580068117810E9463392083E4
:1040B0003183428353836483758386839783F401BA
:1040C000EE0FFF1FEE0FFF1FEA5DFC4FC301770CE1
:1040D000AA0BBB0B4081518162817381840F951FB4
:1040E000A61FB71F80839183A283B383F401EE0FD1
:1040F000FF1FEE54FC4F5182408289818F5F809375
:10410000DA038215130419F014F01092DA030F90F9
:104110000F900F90DF91CF91FF91EF91BF91AF91F1
:104120009F918F917F916F915F914F913F912F91CF
:104130001F910F91FF90EF90DF90CF90BF90AF90C5
:104140009F908F907F906F905F904F903F902F90B7
:104150000F900FBE0F901F9018954091E40350915F
:10416000E5036091E6037091E70380916802909106
:104170006902A0916A02B0916B0284179507A607A5
:10418000B70748F480916702811105C081E08093F0
:104190002003809367024091E4035091E50360910E
:1041A000E6037091E7038091E8039091E903A09101
:1041B000EA03B091EB0384179507A607B70708F049
:1041C0002CCE1092E4031092E5031092E6031092B5
:1041D000E70381E080930A011092240310922303E5
:1041E0006AE873E07B836A8312E6212E13E0312EA6
:1041F000EAE3F3E066E273E050E040E04217530781
:104200000CF0D7C0CA01A3E0880F991FAA95E1F767
:104210008C0108501D4FD8011C9211961C921197C9
:1042200012961C92129713961C92139714961C9236
:10423000149715961C92159716961C92169717961A
:104240001C928C0100531D4FD8011C9211961C9298
:10425000119712961C92129713961C92139714960C
:104260001C92149715961C92159716961C921697E9
:1042700017961C92AA81BB811C9211961C921197D1
:1042800012961C92129713961C92139714961C92D6
:10429000149715961C92159716961C9216971796BA
:1042A0001C9217971896BB83AA83D1011C92119672
:1042B0001C92119712961C92129713961C921397A8
:1042C00014961C92149715961C92159716961C928C
:1042D000169717961C92B8E02B0E311C80809180A7
:1042E000A280B380C480D580E680F78038968C01A8
:1042F00008551D4FD8018C9211969C9211971296D9
:10430000AC9212971396BC9213971496CC92149772
:104310001596DC9215971696EC9216971796FC92C6
:104320007F01B8E0EB1AF108D7011C9211961C929C
:10433000119712961C92129713961C92139714962B
:104340001C92149715961C92159716961C92169708
:1043500017961C92DB018D909D90AD90BD90BD0194
:1043600075016401FF0CCC08DC2C760180589D4F50
:10437000DC018C9211969C9211971296AC92129736
:104380001396BC9213971496CC9214971596CC92D0
:1043900015971696CC9216971796CC92CB01049748
:1043A000DC011D921D921D921C9213974F5F5F4F6F
:1043B00025CF7091C4036091C5035091C60340910D
:1043C000C7033091C8032091C9039091CA0380911B
:1043D000CB0370937002609371025093720240930A
:1043E0007302309374022093750290937602809347
:1043F00077021092C4031092C5031092C603109264
:10440000C7031092C8031092C9031092CA031092F6
:10441000CB038091C0039091C103A091C203B091DE
:10442000C303AC01BD01770F440B542FBA01809335
:10443000780290937902A0937A02B0937B02409322
:104440007C0240937D0240937E0240937F02BBCC6E
:1044500010824CCE1F920F920FB60F9211242F9301
:104460003F934F935F936F937F938F939F93AF93FC
:10447000BF93EF93FF938091B900887F803609F452
:104480004AC0F0F5883209F4A7C018F5803109F464
:104490009BC0B8F4882309F4F9C0883009F494C0AB
:1044A000FF91EF91BF91AF919F918F917F916F910C
:1044B0005F914F913F912F910F900FBE0F901F90E2
:1044C0001895883109F488C0803251F780935D05D2
:1044D00014C0803409F49DC040F48033B9F38833AC
:1044E000F9F680935D0585ECB0C0803509F485C090
:1044F000883509F496C0883499F60E94281BD0CFDD
:10450000883909F48CC038F5883729F050F488369A
:1045100011F0803729F683E080935F0510923D0209
:1045200057C0883809F47BC0803919F0803809F009
:10453000B7CF80913D02803208F071C0E0913D021A
:1045400081E08E0F80933D028091BB00F0E0E35E3E
:10455000FD4F80833DC0803B39F0E0F4803A09F4A0
:1045600079C0883A09F09CCF84E080935F0510926F
:104570001C0210921B02E091DE03F091DF0309950B
:1045800080911B0281110FC081E080931B02109269
:10459000FB0109C0803C09F4A6CF883C09F4A3CFF5
:1045A000883B09F07DCFE0911C0281E08E0F809363
:1045B0001C02F0E0E550FE4F80818093BB0090919B
:1045C0001C0280911B0229C080913A058093BB0098
:1045D00085EC8093BC0064CF90915C0580915B0575
:1045E000981758F5E0915C0581E08E0F80935C058B
:1045F000F0E0E55CFA4F8081E9CFE0915C0581E075
:104600008E0F80935C058091BB00F0E0E55CFA4F73
:10461000808390915C0580915B059817C8F285E8CE
:10462000D8CFE0915C0581E08E0F80935C0580918E
:10463000BB00F0E0E55CFA4F808380915E0581115C
:104640005CCF81E08093390584EA8093BC001092AE
:104650005F0526CF85EC8093BC0010925F058091AA
:104660003D02803230F4E0913D02F0E0E35EFD4F28
:10467000108260913D0270E0E091E003F091E1036F
:104680008DE192E0099510923D020ACF10925D05EE
:1046900034CFEF92FF920F931F93CF93DF9300D00D
:1046A000CDB7DEB710928C0510928B0588EE93E0A3
:1046B000A0E0B0E080938D0590938E05A0938F05C8
:1046C000B09390058CE891E090938A0580938905DA
:1046D00085EC90E0909396058093950584EC90E0AE
:1046E000909398058093970580EC90E090939A05BD
:1046F0008093990581EC90E090939C0580939B05B5
:1047000082EC90E090939E0580939D0586EC90E06E
:104710009093A00580939F051092A2051092A30587
:104720001092A4051092A505109238061092390631
:1047300033E030933C0621E020933D068EE690E086
:10474000A0E0B0E080933E0690933F06A093400621
:10475000B09341061092420610924306109244060E
:10476000109245061092460610924706109248068F
:104770001092490610924E0610924F063093520640
:10478000209353068093540690935506A0935606A3
:10479000B0935706109258061092590610925A0676
:1047A00010925B0610925C0610925D0610925E06F7
:1047B00010925F0680E094E090933706809336066F
:1047C00080E290E090933506809334068091540106
:1047D0000E9456078EEF90E090937F0680937E06AE
:1047E00085E190E090937B0680937A0684E290E0E6
:1047F00090937906809378068BE091E09093810600
:10480000809380068FEF93E09093830680938206D7
:1048100010927D0610927C060BE011E01A8309834A
:10482000CE0101960E94171A780195E1E90EF11C5C
:104830008F3F81F110937D0600937C068FEFE81681
:1048400083E0F80674F5FA82E982CE0101960E94AF
:10485000171A8F3FD9F00BE011E0809182069091FA
:10486000830608171907ECF41A8309836FEFCE014A
:1048700001960E94EC1A10927D0610927C0680919F
:104880007A0690917B06080F191FE7CF95E1E90E94
:10489000F11CD4CF87018FEFE81683E0F80609F00A
:1048A000BDCF109287061092860688EE93E0A0E0B6
:1048B000B0E08093880690938906A0938A06B0930F
:1048C0008B068EE991E09093850680938406109282
:1048D000F0061092EF0680EB91E09093EE06809345
:1048E000ED061092F1061092F6061092F70610925D
:1048F000F80681E08093900699E19093910692EDFD
:104900009093920695E09093930649E25CE766E8FF
:1049100073E44093940650939506609396067093C3
:10492000970640E050E060E773E4409398065093A8
:10493000990660939A0670939B0640E050E068E405
:1049400072E440939C0650939D0660939E0670937C
:104950009F060DEC1CEC25EB32E40093A0061093AF
:10496000A1062093A2063093A3064AE959E969E912
:104970007FE34093A4065093A5066093A606709328
:10498000A7060093A8061093A9062093AA063093C1
:10499000AB064093AC065093AD066093AE067093A1
:1049A000AF0643E353E36BE970E44093B0065093E2
:1049B000B1066093B2067093B3068093B40610926A
:1049C000B6061092B5061092B7061092B90610926C
:1049D000B8068093BA061092EB0683E08093EC064B
:1049E0000F900F90DF91CF911F910F91FF90EF905B
:1049F0000895CF93DF93CDB7DEB76E970FB6F894D7
:104A0000DEBF0FBECDBF789484B5826084BD84B50F
:104A1000816084BD85B5826085BD85B5816085BDB9
:104A200080916E00816080936E0010928100809171
:104A300081008260809381008091810081608093F9
:104A40008100809180008160809380008091B1001E
:104A500084608093B1008091B00081608093B00049
:104A600080917A00846080937A0080917A008260DD
:104A700080937A0080917A00816080937A0080919F
:104A80007A00806880937A001092C10061E089E02A
:104A90000E941A0761E089E00E94EC0662E088E06B
:104AA0000E941A0761E085E00E941A0760E085E035
:104AB0000E94EC06E0919905F0919A0582E08083CE
:104AC000E0919505F09196051082E0919705F0919F
:104AD000980583E380831092A105E0919D05F091F4
:104AE0009E0586E08083E0919B05F0919C05808186
:104AF00080618083E0919B05F0919C0580818860B6
:104B00008083E0919B05F0919C0580818068808383
:104B1000E0919B05F0919C0580818F7D80836DEBFA
:104B200070E089E895E00E9403080E945A1286EA24
:104B300090E00E94A21080E190E00E94AF1A8823CA
:104B4000F9F0CE0101960E941C1AE980FA80F7FC68
:104B500017C023E0E20EF11CB0E9CB2EB6E0DB2E4D
:104B600007E010E01E870D87CE010D960E94171AF0
:104B7000D6018D936D010F5F1F4F0E151F0590F32A
:104B800060ED77E080E090E00E94BB0780919406A2
:104B900090919506A0919606B0919706109200010B
:104BA0008093400190934101A0934201B09343014F
:104BB0004091A4065091A5066091A6067091A706A3
:104BC000E09108048E2F90E09C01220F331F220FEA
:104BD000331FD901A45DBE4FC090A006D090A1069E
:104BE000E090A206F090A306CD92DD92ED92FC92A9
:104BF0001397285E3E4FD9014D935D936D937C933F
:104C000013978D5F9B4F41E0DC014C93E0930F04C1
:104C100051E05E0F852F90E0DC01A050BF4F4C9318
:104C2000C090AC06D090AD06E090AE06F090AF0616
:104C30009C01220F331F220F331FD901A45DBE4FE9
:104C40008090A8069090A906A090AA06B090AB0606
:104C50008D929D92AD92BC921397285E3E4FD901E2
:104C6000CD92DD92ED92FC9213978D5F9B4FDC010C
:104C70004C9350931004EE5FE0930804F0E0E05092
:104C8000FF4F82E0808383E393E3A3E5B0E4809366
:104C9000440190934501A0934601B0934701609170
:104CA0009C0670919D0680919E0690919F060E94A1
:104CB000573A7093100160930F0190E080E00E94DA
:104CC000B63720910B0130910C0140910D015091AC
:104CD0000E010E9417380E94573A7093EE036093BA
:104CE000ED030E94020B10E08091110190911201DE
:104CF000181719062CF4812F0E9477121F5FF4CF2A
:104D00008091980690919906A0919A06B0919B0681
:104D10008093480190934901A0934A01B0934B01BD
:104D20008091B4068093380681E08093390693E041
:104D300090933C0680933D064091B5065091B6068F
:104D4000052E000C660B770B40933E0650933F06F2
:104D500060934006709341062091B70620934E065B
:104D600080934F06909352068093530640935406C7
:104D700050935506609356067093570694E09093AF
:104D800054019FEF909306019FE5909307012BEB51
:104D900036E030930C0420930B048093DB0381E70F
:104DA00094E09093DD038093DC0386E08093170109
:104DB000E0907C06F0907D06E114F10409F484C1D2
:104DC00004E616E0F701E356F6406F019601200F66
:104DD000311F80917A0690917B068E0D9F1D2817BA
:104DE000390754F43A832983CE0101960E94171A99
:104DF000D8018D938D01EACFC0906406D0906506EE
:104E0000E0906606F09067060091680610916906CA
:104E100020916A0630916B0640916C0650916D06A8
:104E200060916E0670916F06809170069091710688
:104E3000A0917206B0917306C0922404D09225040A
:104E4000E0922604F092270400932804109329048A
:104E500020932A0430932B04409342065093430638
:104E600060934406709345068093580690935906C4
:104E7000A0935A06B0935B068091BA060E942A0F4F
:104E80008AE090E0909309018093080160E070E06F
:104E900080E09FE30E94700B1092E3031092E20304
:104EA00010926605109288050E94D60B89EF97E054
:104EB0009093DF038093DE038AEF97E09093E10302
:104EC0008093E0038091130111E0109365058093B6
:104ED00087050E94150C882309F403C180911501F0
:104EE00010936505809387051092660510928805DA
:104EF0000E94150C882309F408C189EC90E00E94F7
:104F0000A21080E090E080936F0490937004188A60
:104F10001F8640EB51E05E874D87898B20E12E8B09
:104F200092E09F8B188E1C821B825A8349838D834B
:104F30002A879B871C861092E3031092E20310924B
:104F40006605109288050E94D60B89EF97E0909332
:104F5000DF038093DE038AEF97E09093E103809371
:104F6000E0031E828B85823010F098E09E83898753
:104F700062E370E080E090E00E94BB076C85CE01A8
:104F800001960E94820D68EE73E080E090E00E943E
:104F9000BB0760E3CE0101960E941F100BE416E4EC
:104FA000C8010197F1F760E3CE0101960E941F103E
:104FB000C8010197F1F760E3CE0101960E941F102E
:104FC00083E592E00197F1F760E2CE0101960E943D
:104FD0001F106E81606240E0CE0101960E94381081
:104FE00084E08F8340E06CE0CE0101960E9438108F
:104FF000CE0101960E947E1082E0888740E066E044
:10500000CE0101960E94381040E062E0CE01019688
:105010000E9438108BE39FE10197F1F788E08C87BD
:1050200060E0CE0101960E94820D66EF70E0CE0135
:1050300001960E9403084AE050E061E0CE0101962B
:105040000E94FD1067EC71E0CE0101960E9458129B
:105050004AE050E060E0CE0101960E94FD1067EC4E
:1050600071E0CE0101960E9458124AE050E060E0E3
:10507000CE0101960E94FD1061E0CE0101960E94D2
:105080004F1068EE70E0CE0101960E94030860EDBB
:1050900077E080E090E00E94BB0781E080936E049F
:1050A000809108048823A1F1282F30E03093120169
:1050B000209311018F5F90E0853050F5FC01ED5F8A
:1050C000FB4F10820196F8CF80E090E0DC0140E0D9
:1050D00050E0BA0100E010E09801C12CD12C76011B
:1050E000ABCE03E111E067ED70E089E895E00E9446
:1050F000030860E170E0F801808191810E944F1106
:10510000D8018C9111969C91FECE05E111E0EBCF78
:105110008090440190904501A0904601B0904701D5
:10512000609136067091370690E080E00E94B637B5
:105130002B013C01209140013091410140914201FD
:1051400050914301C501B4010E941738A301920197
:105150000E94DE39609340017093410180934201C7
:10516000909343010CE2E02E01E0F02E8FEEC82E6A
:1051700083E0D82E10E000E080911101909112019F
:1051800008171907FCF4F70120813181428153810E
:10519000C501B4010E941738A30192010E94DE39B3
:1051A000D7016D937D938D939D937D01802F0E94F8
:1051B0007712F60111921192119211926F010F5F05
:1051C0001F4FDACF81EF9AE090933B0680933A0627
:1051D00084EF9AE0909351068093500681E080938B
:1051E0000A011092E4031092E5031092E603109274
:1051F000E70387E080937A0080917A00806880934B
:105200007A0080917A00806280937A0080917A009F
:10521000886080937A0080917A00806480937A001D
:105220007894C0900B01D0900C01E0900D01F090AB
:105230000E0160910F017091100190E080E00E94DA
:10524000B637A70196010E9417380E94573A70930B
:10525000EE036093ED031092EC0320E034E244E7A8
:1052600059E4C701B6010E94173820E030E040ED54
:1052700052E40E94DE390E94573A6093E80370932B
:10528000E9038093EA039093EB0380913806882327
:1052900059F062E080913C060E941A0761EF7AE0C3
:1052A00080913D060E94A90680914E06882359F000
:1052B00062E0809152060E941A0764EF7AE08091C2
:1052C00053060E94A9060E9430138823E1F36091DF
:1052D000B0067091B1068091B2069091B3060E941B
:1052E000700B80916F041C821B8220EB31E03A83AB
:1052F00029838D8380E18A8782E08B871C86CE019B
:1053000001960E947E1088E08C8760E0CE010196B5
:105310000E94820D8091400464E471E0811102C01A
:1053200064E371E0CE0101960E94030860EA7FE029
:1053300080E090E00E94BB07CE0101960E947E10A3
:1053400069E271E0CE0101960E9403080E94F70A0B
:105350004AE050E0BC01CE0101960E94151161E0C7
:10536000CE0101960E944F106CE171E0CE010196D2
:105370000E94030860ED77E080E090E00E94BB07A8
:10538000CE0101960E947E106BE071E0CE01019685
:105390000E94030861E0CE0101960E944F106FEF5A
:1053A00070E0CE0101960E94030881E080936E04B4
:1053B00064E170E080E090E00E94BB07809190067D
:1053C00043E953E0833031F044E653E0823011F09A
:1053D00042EB51E060919206809193060E94C50DC8
:1053E000EEE3FBE08491E0E7FBE00491ECE5FBE019
:1053F0001491112301F181110E94C306E12FF0E005
:10540000EE0FFF1FE65BF44FA591B4918C9108233A
:1054100091F060E085E00E94EC0680912705811103
:1054200012C080913805803189F080E10E945C0EC5
:105430000FEF1FEF72C061E085E00E94EC0681E093
:1054400080932705EECF0C940000EBCF87E20E94FB
:10545000C20D909109048074891751F180E4892765
:1054600080930904903421F188E10E94C20D90E0FC
:10547000B3E095958795BA95E1F7877080933405E9
:1054800084E20E94C20D809333058FE10E94C20D19
:10549000109231058093320580E20E94C20D209166
:1054A000310530913205282B309332052093310598
:1054B00088E20E94C20D82FFBBCF80E00E94C20D35
:1054C000082F10E0F12CE12CE016F1067CF480E0CE
:1054D0000E94C20DF2E4EF16F10424F4F701EB513F
:1054E000FB4F80832FEFE21AF20AEECF84E20E9494
:1054F000C20D809333058091E504282F207C909184
:105500003605291395CF8F7390913505891729F0AA
:10551000882319F09F3309F08BCF8091EC0680FF30
:1055200068C0023011050CF464C081E080934F0123
:1055300000934D018091E60480934C0180913305E6
:1055400090E09595879591958195910980934E016D
:105550006FE17BE089E895E00E94030800914D012E
:105560006DE571E089E895E00E9403084AE050E0AB
:1055700060914C0189E895E00E94FD106BE571E0B7
:1055800089E895E00E940308A7EEEA2EA4E0FA2E2F
:1055900012E0101798F4D7014D917D0150E070E0B2
:1055A00060E02AE089E895E00E94B11069E571E0C9
:1055B00089E895E00E9403081F5FEBCF67E571E083
:1055C00089E895E00E94030860914E01062E000CC8
:1055D000770B4AE050E089E895E00E94151165E5F7
:1055E00071E089E895E00E9403080E949C100E94E7
:1055F0008A0E8091EC0681FF57C08091E4048823D5
:1056000009F452C061E089E00E94EC0668EC70E0A9
:1056100080E090E00E94BB0760E089E00E94EC0619
:105620008AE19BE00E94700E4091E40450E070E03B
:1056300060E02AE089E895E00E94B11086E19BE0F5
:105640000E94700E1091E404E12EF12C80E00E9483
:105650005C0E62E0610F80E80E94980D6091360553
:1056600080E80E94980D6091350580E80E94980DB1
:1056700002EA14E0C801825A94408E159F053CF45A
:10568000F80161918F0180E80E94980DF3CF8CE0C2
:105690000E945C0E88E20E94C20D83FFFBCF84E073
:1056A0000E945C0E1092E40489E895E00E94E909EA
:1056B000892B11F40C94683489E895E00E94E9097B
:1056C000892B11F40C944E3489E895E00E94B208BD
:1056D000182F80ED810F8A30C8F481E08093180480
:1056E0000E94ED07609314047093150480931604D0
:1056F0009093170489E895E00E94E909892B09F441
:10570000C1C089E895E00E946308F4CF0E94ED07CC
:10571000C0901404D0901504E0901604F090170483
:105720006C197D098E099F09613D774081059105BE
:1057300010F010921804809118048111A3C0E1ECBC
:10574000E10FEC3308F09EC00E2E000CFF0BE55568
:10575000F44D0C9446394634422C422C422C422CB7
:10576000422C422C422C422C422C422C422C422CC9
:10577000D92D422C422C422C422C422C422C422C21
:10578000AF33422CD933422C422C422C422C422C97
:10579000422C422C422C422C422CE72B0F2C4F2C1B
:1057A0005B2C422C912CB72C422CF331422CCB2C6D
:1057B000E22F5331F331422C0C32422C2A32563232
:1057C0003B33422CD033F333422C422C07340E941B
:1057D0004E09609398067093990680939A06909369
:1057E0009B06609348017093490180934A0190930E
:1057F0004B0180911904882309F444C06DEC7AE0D0
:1058000089E895E00E9403086091980670919906D6
:1058100080919A0690919B060E94451233C00E9487
:10582000F20881E0643039F082E0683021F083E0F2
:10583000693009F080E080939006809119048823F4
:10584000F1F061EC7AE089E895E00E94030880912C
:105850009006813021F48AEB9AE00E94A210809198
:105860009006823021F483EB9AE00E94A21080918E
:105870009006833021F48CEA9AE00E94A21081E025
:105880008093A10489E895E00E94E909892B11F42D
:105890000C944E3489E895E00E946308F3CF0E948F
:1058A000F2086130710521F481E08093EB06EACFC4
:1058B0001092EB06E7CF0E944E096B017C012DECA4
:1058C0003CEC4CEC5DE30E94B13787FF07C0EDEC88
:1058D000CE2EECECDE2EED2CEDE3FE2EC701B60154
:1058E0000E94700BC092B006D092B106E092B20650
:1058F000F092B30680911904882321F26BE97AE0D3
:1059000089E895E00E94030822E030E0B701A60193
:1059100089E895E00E94561288E99AE00E94A21058
:10592000B1CF0E944E090E94503A072E000C880BFE
:10593000990B0E94B83760939C0670939D068093E4
:105940009E0690939F0680911904882309F49ACFAC
:1059500061E97AE089E895E00E94030860919C067D
:1059600070919D0680919E0690919F0655CF0E9452
:10597000F2086093920680911904882309F47FCF7E
:1059800069E87AE089E895E00E9403088091920630
:105990000E94041174CF0E94F208698F7A8F8B8F56
:1059A0009C8FA98CBA8C0E944E096B017C010E94CD
:1059B0004E092B013C0189E895E00E94E909892BF9
:1059C00029F089E895E00E946308F5CF21E0A2164E
:1059D000B10409F45DC032E0A316B10409F4A0C01B
:1059E000AB2861F520914401309145014091460179
:1059F00050914701C701B6010E9417384B015C0165
:105A0000609136067091370690E080E00E94B637CC
:105A10009B01AC01C501B4010E94DE3960934001D5
:105A2000709341018093420190934301C092940688
:105A3000D0929506E0929606F0929706809119040E
:105A4000882309F41FCF66E87AE089E895E00E9490
:105A500003084AE050E0698D7A8D89E895E00E945C
:105A6000151164E87AE089E895E00E94030822E0D5
:105A700030E0B701A60189E895E00E94561262E87D
:105A80007AE089E895E00E940308C301B201C4CE20
:105A900010910F0484E0189F10011124D101A45D1E
:105AA000BE4FBE8FAD8F2091440130914501409192
:105AB000460150914701C701B6010E9417384B01BA
:105AC0005C01609136067091370690E080E00E949C
:105AD000B6379B01AC01C501B4010E94DE39ED8DE2
