:100000000C94C2050C94D11B0C94AA1B0C94EA0509
:100010000C94EA050C94EA050C94EA050C94EA05A4
:100020000C94EA050C94EA050C94EA050C94EA0594
:100030000C94EA050C94EA050C94EA050C94EA0584
:100040000C94601B0C94EA050C941E1C0C94F81B79
:100050000C94EA050C946F1D0C94EA050C94EA05C7
:100060000C94501C0C94EA0505A84CCDB2D44EB9A2
:100070003836A9020C50B9918688083CA6AAAA2A4B
:10008000BE000000803F005EBCE2613FDD83C29C99
:100090007E20A3FD1F41009D23BE46DB65F88C1129
:1000A000AF32CA57E9747C4F70656E456E657267F2
:1000B000794D6F6E69746F722E6F7267007C656D1B
:1000C0006F6E5069434D2056004C4344206E6F7450
:1000D00020666F756E64004C434420666F756E64D5
:1000E00020693263203078004F70656E456E65720E
:1000F00067794D6F6E00656D6F6E506920560050C8
:100100006C6561736520776169740050692069735B
:1001100020626F6F74696E672E2E2E004453313843
:100120004232302054656D700044657465637465B7
:10013000643A20004143204E4F5420446574656367
:100140007465640041432057617665204465746599
:100150006374656400290028002000200020007CD2
:10016000000A00202868696464656E292E002062F8
:1001700079746573002C20446174612073697A6519
:100180003A2000205369676E61747572653A2000E9
:100190007C004E6F206461746120626C6F636B2021
:1001A000666F756E64202D20454550524F4D20617D
:1001B00070706561727320746F20626520666F7263
:1001C0006D617474656420746F204F454D205374C5
:1001D000616E646172642062757420756E757365FA
:1001E000642E007C007C000A002062797465732C08
:1001F000206E6F7420666F726D6174746564207414
:100200006F204F454D205374616E646172640053DA
:10021000697A653A20007C000D0A7C436F6E66693E
:10022000672073617665640D0A7C007C536B65748E
:1002300063682072657374617274696E6720776990
:1002400074682064656661756C7420636F6E66699E
:10025000672E007C526573657474696E672E2E2E4E
:10026000002000207400200020002000206D0020CD
:1002700064002000206B3220002000206B31200021
:1002800020302E303000206B3020002066002061AE
:1002900063002061002069002067002070003900A1
:1002A0003800340020620020720053657474696E57
:1002B00067733A007C0020656E61626C65642E0095
:1002C00054656D7065726174757265206D656173DA
:1002D0007572656D656E74206973007C007C0053D7
:1002E000656E736F72206D6179206E6F7420626528
:1002F0002072656C6961626C6500200030007C00D2
:100300002C20776974682061646472657373657307
:100310002E2E2E0054656D706572617475726520A5
:1003200053656E736F727320666F756E64203D2027
:10033000007C002C2073656E736F727320666F757E
:100340006E643A20007C74656D705F656E61626CEE
:10035000653A20002C20706572696F643A20007C39
:1003600070756C736573323A20002C207065726969
:100370006F643A20007C70756C736573313A2000AD
:100380007C646174616C6F673A20002C204C65615D
:10039000643A20007C693243616C3A20002C204C86
:1003A0006561643A20007C693143616C3A20007CCD
:1003B0007643616C3A20007C667265713A20007C5D
:1003C00041432044657465637465643A20007C6130
:1003D0007373756D6564563A20007C43616C696285
:1003E000726174696F6E007C4E6F64652049443A97
:1003F00020007C47726F75703A20002064426D00C7
:100400007C506F7765723A20003931354D487A005B
:100410003836384D487A003433334D487A007C52B0
:10042000462042616E643A20007C526164696F3AF2
:1004300020007C53657474696E6773007C0A7C418C
:100440007661696C61626C6520636F6D6D616E646D
:10045000733A0A7C206C09092D206C69737420633F
:100460006F6E66696720287465727365290A7C203F
:100470004C09092D206C69737420636F6E6669677F
:100480002028766572626F7365290A7C20720909DB
:100490002D20726573746F72652064656661756C7A
:1004A0007473202620726573746172740A7C2073E1
:1004B00009092D207361766520746F2045455052DF
:1004C0004F4D0A7C207609092D2073686F772076BE
:1004D000657273696F6E0A7C20563C6E3E09092D69
:1004E00020766572626F7365206D6F64652C2031B4
:1004F000203E204F4E2C2030203E204F46460A7C86
:1005000020623C6E3E09092D2073657420722E66B0
:100510002E2062616E64206E203D2034203E203407
:1005200033334D487A2C2038203E203836384D4819
:100530007A2C2039203E203931354D487A20286DDB
:10054000617920726571756972652068617264777E
:10055000617265206368616E6765290A7C20703C62
:100560006E6E3E09092D2073657420722E662E2052
:10057000706F7765722E206E6E202830202D20330C
:100580003129203D202D31382064426D20746F20A8
:100590002B31332064426D2E2044656661756C7486
:1005A0003A20323520282B372064426D290A7C20DE
:1005B000673C6E6E6E3E092D207365742047726F26
:1005C000757020284F454D2064656661756C7420F8
:1005D0003D20323130290A7C206E3C6E6E3E090986
:1005E0002D20736574206E6F646520494420283186
:1005F0002E2E3630290A7C20633C6E3E09092D20C0
:10060000656E61626C65206F757470757420666FBD
:10061000722063616C6962726174696F6E2E206E04
:10062000203D20307C31200A7C20643C78782E7874
:100630003E092D20646174616C6F6767696E672085
:10064000706572696F64202873290A7C206B3C787E
:100650003E203C79792E793E203C7A7A2E7A3E0AE9
:100660007C09092D2043616C69627261746520699F
:100670006E7075743A0A7C09090978203D20302093
:100680003E20766F6C746167652C2031203E2063BC
:1006900074312C2032203E206374322C2065746328
:1006A0000A7C09090979792E79203D20766F6C74CE
:1006B0006167652F63757272656E742063616C6922
:1006C00062726174696F6E0A7C0909097A7A2E7AFE
:1006D000203D2070686173652063616C696272619E
:1006E00074696F6E2E20286374206F6E6C79290AEE
:1006F0007C090909652E672E206B30203235362E95
:10070000380A7C0909096B312039302E3920322E04
:1007100030300A7C20663C78783E09092D206672CC
:10072000657175656E637920283530206F722036CB
:1007300030290A7C20613C78782E783E092D206192
:100740007373756D656420766F6C7461676520697D
:1007500066206E6F20612E632E2070726573656E49
:10076000740A7C206D3C783E203C79793E092D202E
:100770006D657465722070756C736520636F756E3E
:1007800074696E673A0A7C09090978203D20302097
:100790003E20616C6C204F46462C2078203D203155
:1007A000203E20636F756E742031204F4E2C2078D0
:1007B000203D2032203E20636F756E742032204F22
:1007C0004E2C203C79793E203D2070756C7365205D
:1007D0006D696E696D756D20706572696F64202832
:1007E0006D7329202879206973206E6F74206E65DF
:1007F00065646564207768656E2078203D20302927
:100800000A7C207430203C793E092D2074656D707F
:10081000657261747572653A0A7C09090979203D2F
:100820002030203E204F46462C2079203D2031208C
:100830003E204F4E2C2059203D2032203E20536533
:10084000617263680A7C20743C783E203C79793E72
:10085000203C79793E203C79793E203C79793E20D4
:100860003C79793E203C79793E203C79793E203CA8
:1008700079793E0A7C0909096368616E67652073AE
:10088000656E736F72277320616464726573732081
:100890006F7220706F736974696F6E3A0A7C090910
:1008A0000978203D207468652073656E736F72202F
:1008B000706F736974696F6E20696E20746865204B
:1008C0006C6973742028312D6261736564290A7C18
:1008D0000909097979203D203820686578206279F6
:1008E000746573202D207468652073656E736F7254
:1008F000277320616464726573730A7C0909096552
:100900002E672E20203238203831203433203331E6
:100910002030372030302030302044390A7C09091B
:10092000094E2E422E2053656E736F727320434121
:100930004E4E4F5420626520616464656420626598
:10094000796F6E64207468652061727261792073BA
:10095000697A652E0A7C20543C6363633E5C6E09B1
:100960002D207472616E736D6974206120737472CE
:10097000696E672E0A7C20773C6E3E09092D206E39
:10098000203D2030203E20726164696F204F464632
:100990002C206E203D203120666F722052656365E9
:1009A000697665204F4E2C206E203D203220666FE8
:1009B00072205472616E736D6974204F4E2C206EDC
:1009C000203D203320666F7220626F7468204F4E86
:1009D0000A7C207A09092D207365742074686520CB
:1009E000656E657267792076616C75657320616EDE
:1009F000642070756C736520636F756E742873293D
:100A000020746F207A65726F0A7C203F09092D20BF
:100A100073686F77207468697320616761696E0A13
:100A20007C007C526164696F20006F6666006F6EA7
:100A3000007C566572626F7365206D6F646520007F
:100A40007C656D6F6E506920434D205600206442D6
:100A50006D007C703A20007C4E6F64652000206D34
:100A60007300436820323A2000206D7300436820F1
:100A7000313A20006F6666007C50756C7365733A7E
:100A80002000200020007C6B007C47726F75702076
:100A9000007C6672657120002073007C6461746163
:100AA0006C6F6720706572696F6420003931354D55
:100AB000487A003836384D487A003433334D487A16
:100AC000007C52462042616E64203D20007C4173D0
:100AD00073756D656420563A200020282D3029005A
:100AE00020004F4B20002000322000200031200049
:100AF0002C20663A002C207066323A002C204932B5
:100B00003A002C207066313A002C2049313A007CA2
:100B100056726D733A0020620A00202D3E20004F6D
:100B20004B0000000000240027002A000000000005
:100B3000250028002B00000000080002010000032F
:100B40000407000000000000000000000000230077
:100B5000260029000404040404040404020202021E
:100B60000202030303030303010204081020408070
:100B70000102040810200102040810207C000A0071
:100B80007C00492311241FBECFEFD8E0DEBFCDBFCC
:100B900026E0AAEDB1E001C01D92A93FB207E1F73E
:100BA00011E0A0E0B1E0EAE7F7E702C005900D929E
:100BB000AA3DB107D9F715E0C2ECD5E004C02197F2
:100BC000FE010E944039C13CD107C9F70E94F324BD
:100BD0000C94BB3B0C94000080915206E0915306AC
:100BE000F0915406F8949181282F209592239183B7
:100BF00078943DE743E050E0315029F1DA01119754
:100C0000F1F790819823C1F3F89492819223928313
:100C10009181982B91837894ABE7B7E01197F1F726
:100C2000F894918192239183A3E1B1E01197F1F7B8
:100C30009081982381E009F080E07894E3E6F6E083
:100C40003197F1F7089580E0089590915206E09170
:100C50005306F0915406292F209580FF14C0F89474
:100C60008281822382838181892B8183A3E2B0E008
:100C70001197F1F78281982B9283789487ED90E019
:100C80000197F1F70895F89482818223828381810C
:100C9000892B8183AFEFB0E01197F1F78281982B18
:100CA000928378948FE090E0EBCFFF920F931F93A5
:100CB000CF93DF93F82E062FC8E0D0E011E081E05B
:100CC0009F2D912309F480E00E942506110F2197A2
:100CD000B1F7011113C0F894E0915306F091540656
:100CE000918180915206809598239183E0915306DB
:100CF000F09154069281892382837894DF91CF9179
:100D00001F910F91FF90089580915206E091530634
:100D1000F0915406F8949181982B91832281382F79
:100D2000309523232283A7E0B0E01197F1F791815A
:100D300093239183A3E2B0E01197F1F79081789427
:100D4000EFECF0E03197F1F7982381E009F480E0CF
:100D500008958230B8F4E82FF0E0EE0FFF1FE05B5B
:100D6000FE4F71836083813039F080916900836028
:100D700080936900E89A0895809169008C6080935F
:100D80006900E99A0895833081F028F4813099F060
:100D90008230A9F008958730A9F08830C9F08430F6
:100DA000B1F4809180008F7D03C0809180008F77A7
:100DB00080938000089584B58F7784BD089584B5AD
:100DC0008F7DFBCF8091B0008F778093B000089526
:100DD0008091B0008F7DF9CF1F93CF93DF93282FA1
:100DE00030E0F901EA5CF44F8491F901E859F44FDD
:100DF000D491F901EC5AF44FC491CC23A9F0162FE9
:100E000081110E94C306EC2FF0E0EE0FFF1FE45D9E
:100E1000F44FA591B4918FB7F894EC91111108C0DB
:100E2000D095DE23DC938FBFDF91CF911F91089582
:100E3000DE2BF8CFCF93DF9390E0FC01E859F44F1D
:100E400024918C5A944FFC0184918823C9F090E03E
:100E5000880F991FFC01EE5DF44FA591B491FC0140
:100E6000E45DF44FC591D49161110DC09FB7F89422
:100E70008C91209582238C938881282328839FBF7F
:100E8000DF91CF910895623051F49FB7F8943C916F
:100E9000822F809583238C93E8812E2BEFCF8FB701
:100EA000F894EC912E2B2C938FBFEACFCF93DF9346
:100EB000C82F60E00E941A07D0E0FE01E859F44F05
:100EC000E491A2E5B6E0EC93FE01EC5AF44FE49114
:100ED000F0E0EE0FFF1FE65BF44F859194911296C0
:100EE0009C938E9311971B961C921B971D961C9298
:100EF0001D971C961C921C971A961C921A9719966D
:100F00001C92199718961C92189717961C9217976F
:100F100016961C92169715961C92159714961C926D
:100F2000149713961C92DF91CF9108953FB7F894D0
:100F300080912D0590912E05A0912F05B09130053F
:100F400026B5A89B05C02F3F19F00196A11DB11D24
:100F50003FBFBA2FA92F982F8827BC01CD01620F60
:100F6000711D811D911D42E0660F771F881F991F1B
:100F70004A95D1F708958F929F92AF92BF92CF92E8
:100F8000DF92EF92FF924B015C010E9496076B018A
:100F90007C010E9496076C197D098E099F09683EA5
:100FA000734081059105A8F321E0821A9108A108F8
:100FB000B10888EEC80E83E0D81EE11CF11C811434
:100FC0009104A104B10429F7FF90EF90DF90CF9036
:100FD000BF90AF909F908F9008952FB7F894609135
:100FE000290570912A0580912B0590912C052FBF22
:100FF0000895089508950895DC01ED91FC91019004
:10100000F081E02D0994EF92FF920F931F93CF93FD
:10101000DF938C017B01D0E0C0E0F701EC0FFD1FF6
:101020006491662361F0D801ED91FC910190F0810B
:10103000E02DC8010995892B11F02196EECFCE0144
:10104000DF91CF911F910F91FF90EF900895AF9294
:10105000BF92CF92DF92EF92FF920F931F93CF93A5
:10106000DF936C017B018B01040F151FEB015E0107
:10107000AE18BF08C017D10759F06991D601ED919C
:10108000FC910190F081E02DC6010995892B79F73B
:10109000C501DF91CF911F910F91FF90EF90DF90ED
:1010A000CF90BF90AF900895FC01538D448D252FB4
:1010B00030E0842F90E0821B930B541710F0CF96F2
:1010C000089501970895FC01918D828D981761F024
:1010D000A28DAE0FBF2FB11D5D968C91928D9F5F3B
:1010E0009F73928F90E008958FEF9FEF08950F9375
:1010F0001F93CF93DF93EC010E94ED07609391055E
:1011000070939205809393059093940589E895E0F8
:101110000E94630897FF22C00E94ED07009191058D
:10112000109192052091930530919405601B710BED
:10113000820B930B00918D0510918E0520918F05E8
:10114000309190056017710782079307F8F290E0DD
:1011500080E0DF91CF911F910F910895888381E006
:1011600090E0F7CFFC01918D828D981731F0828D40
:10117000E80FF11D858D90E008958FEF9FEF0895A2
:101180000F931F930E94ED07609391057093920552
:10119000809393059093940589E895E00E94B208A6
:1011A00097FF1DC00E94ED070091910510919205D7
:1011B0002091930530919405601B710B820B930B6A
:1011C00000918D0510918E0520918F05309190052D
:1011D0006017710782079307F8F28FEF9FEF1F9157
:1011E0000F910895CF92DF92EF92FF92CF930E94DA
:1011F000C008FC0197FD4EC08D32910521F0C097CB
:101200000A9708F040C0C12CD12C7601C0E0E13033
:10121000F105D1F0ED32F105D9F1CF01C0970A9770
:1012200098F4AAE0B0E0A70196010E94E5386F01AA
:10123000FF0FEE08FF08C60ED71EE81EF91E80E35A
:10124000C81AD108E108F10889E895E00E9463080E
:101250000E94C008FC01C0970A97C8F2E130F1056E
:10126000B1F2CC2341F0F094E094D094C094C11C2E
:10127000D11CE11CF11CC701B601CF91FF90EF908A
:10128000DF90CF90089589E895E00E946308AFCF82
:10129000C1E0DACFC12CD12C7601EDCF8F929F9295
:1012A000AF92BF92CF92DF92EF92FF92CF93DF93F4
:1012B0000E94C008FC0197FD88C08D32910509F09D
:1012C0004CC0812C912C80E8A82E8FE3B82EC12C25
:1012D000D12C7601C0E0D0E0E130F10559F1ED32DA
:1012E000F10509F447C0EE32F10509F445C0CF011C
:1012F000C0970A97F8F4AAE0B0E0A70196010E940F
:10130000E5386F01FF0FEE08FF08C60ED71EE81E76
:10131000F91E80E3C81AD108E108F108CC2351F086
:101320002DEC3CEC4CEC5DE3C501B4010E9411389E
:101330004B015C0189E895E00E9463080E94C008A7
:10134000FC01C0970A9740F2EE32F105B9F4CC23C4
:1013500019F2CD2FD11118C025C0C0970A9708F4F3
:10136000B0CFEE32F10509F4ACCF89E895E00E94E8
:1013700063089ECFD1E0DECFC1E0DCCFE130F105E4
:1013800009F4AACFDD2341F0F094E094D094C09406
:10139000C11CD11CE11CF11CC701B6010E94B2376F
:1013A000CC2341F0C701B6010E94B237A5019401D8
:1013B0000E941138DF91CF91FF90EF90DF90CF9096
:1013C000BF90AF909F908F90089560E070E0CB0148
:1013D000F1CFFC01918D228D892F90E0805C9F4F91
:1013E000821B91098F739927089589E895E00E94DF
:1013F000E90921E0892B09F420E0822F089580E09B
:1014000090E0892B29F00E94F50981110C940000CD
:101410000895FC01A48DA80FB92FB11DA35ABF4F89
:101420002C91848D90E001968F739927848FA689E3
:10143000B7892C93A089B1898C91837080648C9337
:10144000938D848D981306C00288F389E02D8081E6
:101450008F7D80830895EF92FF920F931F93CF9318
:10146000DF93EC0181E0888F9B8D8C8D98131AC0DF
:10147000E889F989808185FF15C09FB7F894EE89C6
:10148000FF896083E889F989808183708064808323
:101490009FBF81E090E0DF91CF911F910F91FF906E
:1014A000EF900895F62E0B8D10E00F5F1F4F0F7316
:1014B0001127E02E8C8D8E110CC00FB607FCFACFD1
:1014C000E889F989808185FFF5CFCE010E94090A5C
:1014D000F1CFEB8DEC0FFD2FF11DE35AFF4FF082A2
:1014E0009FB7F8940B8FEA89FB8980818062CFCF08
:1014F000CF93DF93EC01888D8823B9F0AA89BB894B
:10150000E889F9898C9185FD03C0808186FD0DC035
:101510000FB607FCF7CF8C9185FFF2CF808185FF56
:10152000EDCFCE010E94090AE9CFDF91CF91089556
:1015300008952091B803260F3327331F2132310538
:10154000ECF420915F05FC0190E080E0243069F02C
:1015500082E00895A091B8032191AC0148565C4FF8
:10156000A40FB52FB11D2C930196861798F3809187
:10157000B803680F6093B80380E0089581E0089590
:1015800010925F0581E080935E051092390561E05D
:1015900082E10E94EC0661E083E10E94EC06E9EB47
:1015A000F0E080818E7F808380818D7F808388E4DE
:1015B0008093B80085E48093BC000895CF93DF93B7
:1015C00091E0909397038823B9F0C091B800D0912F
:1015D000BA008091BC008A7B8093BC0060E082E10D
:1015E0000E94EC0660E083E10E94EC060E94C00AC3
:1015F000D093BA00C093B800DF91CF910895CF92F5
:10160000DF92EF92FF920F931F93CF93DF93D091CE
:10161000880581E0D13208F09CC0C09187050E9406
:1016200096076B017C0180915F0581116CC082E09F
:1016300080935F0581E080935E058FEF80935D0569
:1016400010925C05D0935B05A7E6B5E0EBE3F5E00F
:1016500080E0D8138DC010923A0580913A05CC0FE6
:10166000C82BC0933A0580913905813009F084C0B8
:10167000109239050E9496076B017C0180913A0512
:101680008093BB008091610590916205A0916305F4
:10169000B0916405892B8A2B8B2BA1F00E949607B1
:1016A00000916105109162052091630530916405F8
:1016B0006C197D098E099F09061717072807390736
:1016C00008F442C08091BC0083FDD8CF85EC8093A4
:1016D000BC000E9496076B017C0180915F058230FF
:1016E00009F44CC080915D058F3F09F469C0809179
:1016F0005D05803209F466C080915D05803309F490
:1017000063C084E026C08091610590916205A0913C
:101710006305B0916405892B8A2B8B2B09F483CF49
:101720000E94960700916105109162052091630562
:10173000309164056C197D098E099F0906171707FA
:101740002807390708F06FCF809160050E94DE0AF4
:1017500085E0109266051092880510926505DF916C
:10176000CF911F910F91FF90EF90DF90CF90089550
:101770009D9191938F5F6DCF85EEA9CF809161058B
:1017800090916205A0916305B0916405892B8A2B25
:101790008B2B09F4A2CF0E9496070091610510914E
:1017A000620520916305309164056C197D098E09ED
:1017B0009F09061717072807390708F08ECFC4CFEF
:1017C00080E0C7CF82E0C5CF83E0C3CF0895E0912A
:1017D000E3038091E203E81730F4F0E0E958FC4FAE
:1017E000808190E008958FEF9FEF08959091E3033B
:1017F0008091E2032FEF3FEF981748F4E92FF0E0D4
:10180000E958FC4F208130E09F5F9093E303C901CA
:1018100008958091E2039091E303891B990B089549
:10182000CF92DF92EF92FF920F931F93CF93DF93AC
:101830007C01CB018A0120916505222389F0EB010F
:101840006B01C40ED51ECC15DD0569F06991D70179
:10185000ED91FC910190F081E02DC7010995F3CF46
:10186000642F0E94990AC801DF91CF911F910F91B7
:10187000FF90EF90DF90CF900895CF93DF931F926A
:10188000CDB7DEB76983209165052223F9F0209159
:101890008805203258F021E030E0FC0133832283B8
:1018A00090E080E00F90DF91CF91089580916605E0
:1018B000E82FF0E0E959FA4F998190838F5F809388
:1018C00066058093880581E090E0ECCF61E0CE0171
:1018D00001960E94990AF7CFFC01248131E03093F0
:1018E000650520938705109266051092880583850B
:1018F000682B86E296E00E943D0C0C94FF0A90E073
:1019000080E00895CF92DF92EF92FF920F931F93A2
:10191000CF93DF93082F10E096E1899FE001112417
:10192000CC59D94F8E819F81A885B985892B8A2B67
:101930008B2BA9F10E94ED07CA88DB88EC88FD8813
:101940006C197D098E099F09CE80DF80E884F984B7
:10195000C616D706E806F90658F48E859F85A8892D
:10196000B9890196A11DB11D8E879F87A88BB98B60
:101970000E94ED0726E1209FF001219FF00D112428
:10198000EC59F94F628B738B848B958BDF91CF91E0
:101990001F910F91FF90EF90DF90CF9008958E856B
:1019A0009F85A889B9890196A11DB11D8E879F8742
:1019B000A88BB98BEBCF80E00C94820C81E00C9467
:1019C000820C80910A04882321F080910D0490E01C
:1019D000089590E080E00895CF92DF92EF92FF9219
:1019E0000F931F93CF93DF938091070190E025E041
:1019F000959587952A95E1F780959095837099271D
:101A0000C0EFD2E002C0D595C7958A95E2F7209144
:101A10000F0130911001DE010E944E3928E13CEFA8
:101A20004FEF5FEF0E9421398091ED039091EE031B
:101A30000197280F391F3093BE022093BD0220E08A
:101A400030E04AE754E460910B0170910C01809101
:101A50000D0190910E010E9411380E94513A8E01A1
:101A6000DD0F220B330B6B017C01C01AD10AE20A95
:101A7000F30AA7019601A8EEB3E00E94E538685882
:101A800073418109910928E630E040E050E00E946E
:101A9000FF382093040230930502409306025093CE
:101AA0000702DF91CF911F910F91FF90EF90DF9090
:101AB000CF900895CF92DF92EF92FF926B017C015D
:101AC000C0920B01D0920C01E0920D01F0920E0138
:101AD00060910F017091100190E080E00E94B0379A
:101AE000A70196010E9411380E94513A7093EE03AB
:101AF0006093ED0320E034E244E759E4C701B60106
:101B00000E94113820E030E040ED52E40E94D839C4
:101B10000E94513A6093E8037093E9038093EA03CB
:101B20009093EB03FF90EF90DF90CF900C94EC0C30
:101B3000CF93DF93D82FC62F60E08AE00E94EC0697
:101B4000DEBD0DB407FEFDCF8EB5CEBD0DB407FED4
:101B5000FDCFCEB561E08AE00E94EC068C2FDF91CC
:101B6000CF910895CF93DF93CDE5D1E0888188238D
:101B700031F0698180680E94980D2296F7CFDF913D
:101B8000CF91089560E00C94980DCF92DF92EF9280
:101B9000FF921F93CF93DF93162FEA0180933505B1
:101BA00020E1629FC0011124862794E0899F900163
:101BB00011248227807C8093360561E08AE00E94B0
:101BC000EC0661E08AE00E941A0761E08AE00E9468
:101BD0001A0761E08BE00E941A0760E08CE00E9427
:101BE0001A0761E08DE00E941A0780E58CBD8DB573
:101BF00081608DBD6AEA8FEA0E94980D8FE20E9493
:101C0000C20D8A3AB9F765E58FEA0E94980D8FE216
:101C10000E94C20D8535B9F70E94B20D0E94B20D27
:101C2000BE01DD0F880B990BAAE0B0E09B01AC016F
:101C30000E94E538611521EE720725EF820725E045
:101C4000920790F322E0660F771F881F991F2A954D
:101C5000D1F729E03DE340E050E00E94FF38690100
:101C60007A01CA01B9013AE096958795779567950B
:101C70003A95D1F787E80E94980DC701B60142E076
:101C800096958795779567954A95D1F788E80E944C
:101C9000980D6C2D6295660F660F607C89E80E9436
:101CA000980D612F80EBDF91CF911F91FF90EF9006
:101CB000DF90CF900C94980DCF93C82F8093380568
:101CC00081E00E94C20D837E682F6C2B81E80E9408
:101CD000980D87E20E94C20D87FFFBCFCF91089538
:101CE0001F93CF93DF93EC01FE011491112371F048
:101CF0001A3029F46DE089E895E00E94FC07612F15
:101D000089E895E00E94FC072196EECFDF91CF9104
:101D10001F91089561E089E00E94EC0664E170E0A3
:101D200080E090E00E94BB0760E089E00E94EC0642
:101D30006CE370E080E090E00E94BB0761E089E026
:101D40000E94EC0664E170E080E090E00E94BB0736
:101D500060E089E00C94EC06DF92EF92FF920F9323
:101D60001F93CF93DF9320915F06211106C0E92EC8
:101D7000D82E0E94EC0581110FC010925D061092C2
:101D80005F0610925E0680E0DF91CF911F910F9168
:101D9000FF90EF90DF90089560E080EF0E9455067D
:101DA000D1E000E0F12CC1E00E948406182F0E94CF
:101DB00084061130E1F48130C9F5C134F0F2F092BB
:101DC0005D06F11003C081E080935F0680915506A7
:101DD000882399F2A5E5B6E0ED2DFE2DCF010896FA
:101DE0002D912193E817F907D9F781E0CDCFE02FA6
:101DF000F0E0181311C080915D06C817A8F4DF0148
:101E0000AE5AB94F13968C918D2381F410E0C930EE
:101E100010F4C0935E06FC2EEE5AF94F83819D2F7D
:101E20009095892383830AC08C13F0CFE02FF0E0D4
:101E3000EE5AF94F83818D2B838311E0812F0E940D
:101E40002506CF5FDD0F11F40F5FD1E0083008F4F5
:101E5000ABCFB3CFDF92EF92FF920F931F93CF934D
:101E6000DF93CDB7DEB728970FB6F894DEBF0FBE6D
:101E7000CDBFE0900B04F0900C04E114F10439F0B4
:101E80000091DC031091DD030115110591F410920E
:101E90000A0410920D0428960FB6F894DEBF0FBE08
:101EA000CDBFDF91CF911F910F91FF90EF90DF9009
:101EB0000895D82E809154010E945607D0920A04AA
:101EC000DD2009F4ABC020E030E040E85FE3609142
:101ED0000B0170910C0180910D0190910E010E94F7
:101EE000AB3787FF03C08FE180930701D0900701D4
:101EF00020911701F80110E080E395E7211721F008
:101F0000819391931F5FFACF10925D0610925F0646
:101F100010925E0610925C0610925B0610925A06B2
:101F200010925906109258061092570610925606B3
:101F30001092550610920D04CE0101960E94AC0E2F
:101F4000882349F089818832B9F780910D048F5F29
:101F500080930D04F1CFF70180819091DB039923E9
:101F600079F1882369F110930D04E12FF0E0E1503D
:101F7000F04E93E0EE0FFF1F9A95E1F7EE0DFF1D77
:101F8000111115C010920D048832F9F010E0809103
:101F90000D041817D0F4F8E01F9FC00111248E0D16
:101FA0009F1D0E94AC0E882381F01F5FF0CF3897F1
:101FB0009085983219F410930D04E6CF1150E0CFBC
:101FC00090910D04191700F7F6CF0E94EC0560E020
:101FD0008CEC0E94550660E08EE40E94550660E09D
:101FE00080E00E94550660E080E00E94550660E0B7
:101FF0008D2D0E9455060E94EC0560E08CEC0E943D
:10200000550661E088E40E94550664E170E080E0D6
:1020100090E00E94BB070E94EC0C3DCF109106019E
:1020200017FDF9CF61E0812F0E941A0760E0812F30
:102030000E94EC0660E0812F0E941A07ECCF0F93FC
:102040001F93CF938C01C62F0E946C0C6C2F646081
:10205000C8010E946C0C6C2F6B7FC8010E946C0C35
:1020600083EC90E00197F1F7CF911F910F910895C4
:102070000F931F93CF93DF938C01D62FC42F607FD4
:10208000642B0E941F1080E1D89FB00111246C2B9B
:10209000C801DF91CF911F910F910C941F10CF9326
:1020A000DF93CDB7DEB728970FB6F894DEBF0FBE2B
:1020B000CDBF28E0E5E5F1E0DE01119601900D923B
:1020C0002A95E1F7FC012085261708F46FEF70E0F0
:1020D000660F771F21E030E02C0F3D1F620F731F4A
:1020E000FB016081606840E028960FB6F894DEBF7F
:1020F0000FBECDBFDF91CF910C94381040E061E06E
:102100000E9438108BE39FE10197F1F7089541E0B9
:102110000E94381081E090E00895FB0101900020BA
:10212000E9F73197AF01461B570BDC01ED91FC91AC
:102130000280F381E02D099468EB71E089E895E075
:102140000C948D10CF93DF93BC0189E895E00E9439
:102150000308EC010E949C108C0F9D1FDF91CF9112
:1021600008958F929F92AF92BF92EF92FF920F933A
:102170001F93CF93DF93CDB7DEB7A1970FB6F89437
:10218000DEBF0FBECDBF7C01FA01CB0119A2223008
:1021900008F42AE08E010F5D1F4F822E912CB12C86
:1021A000A12CBF01A50194010E94FF38F901CA01C9
:1021B0006A300CF5605DD8016E938D01232B242BC2
:1021C000252B79F790E080E0109721F0BD01C70141
:1021D0000E948D10A1960FB6F894DEBF0FBECDBF42
:1021E000DF91CF911F910F91FF90EF90BF90AF9033
:1021F0009F908F900895695CDECF242F462F50E08A
:1022000070E060E00C94B110CF93DF934AE050E0AF
:10221000682F89E895E00E94FD10EC010E949C1057
:102220008C0F9D1FDF91CF910895CF92DF92EF9297
:10223000FF920F931F93CF93DF936B01770FEE08FD
:10224000FF084A305105F1F42AE0F7FE1CC0EC010A
:102250006DE20E94FC078C0144275527BA014C19F6
:102260005D096E097F092AE0CE010E94B110800F3E
:10227000911FDF91CF911F910F91FF90EF90DF9011
:10228000CF900895242FB701A601DF91CF911F9120
:102290000F91FF90EF90DF90CF900C94B110CF93FF
:1022A000DF93AB01BC0189E895E00E941511EC01B8
:1022B0000E949C108C0F9D1FDF91CF9108952F924B
:1022C0003F924F925F926F927F928F929F92AF92C6
:1022D000BF92CF92DF92EF92FF921F93CF93DF9343
:1022E000EC016A017B01722EAB019601CB01B601B4
:1022F0000E94663B6BEB71E0811126C046015701DD
:10230000E894B7F82FEF3FEF4FE75FE7C501B4015F
:102310000E94663B81110CC02FEF3FEF4FE75FE754
:10232000C501B4010E94AB376FEB71E0181664F081
:102330002FEF3FEF4FE75FE4C701B6010E94133B69
:102340001816B4F463EC71E0CE01DF91CF911F91C8
:10235000FF90EF90DF90CF90BF90AF909F908F90C5
:102360007F906F905F904F903F902F900C948D10C6
:102370002FEF3FEF4FE75FECC701B6010E94AB378D
:1023800087FDE0CF20E030E0A901C701B6010E943F
:10239000AB37312C212C87FF09C06DE2CE010E94A2
:1023A000FC071C01F7FAF094F7F8F09410E060E0F5
:1023B00070E080E09FE3711641F020E030E040E201
:1023C00051E40E94D8391F5FF6CFA70196010E9401
:1023D00067392B013C010E94513A4B015C012AE014
:1023E000BC01A401CE010E94B1107C01E20CF31CDF
:1023F0001123C1F1C501B4010E94B0379B01AC01AA
:10240000C301B2010E9466394B015C016EE2CE014C
:102410000E94FC07E80EF91E115020F120E030E088
:1024200040E251E4C501B4010E9411382B013C0186
:102430000E94513A4B01B12CA12C2AE0B501A40114
:10244000CE010E94B110E80EF91EC501B4010E9430
:10245000B0379B01AC01C301B2010E9466394B0148
:102460005C01DACFC701DF91CF911F91FF90EF9010
:10247000DF90CF90BF90AF909F908F907F906F90A4
:102480005F904F903F902F900895CF93DF93AB01D3
:10249000BC0122E089E895E00E945F11EC010E94F6
:1024A0009C108C0F9D1FDF91CF9108950C945F11AC
:1024B0000C948D104AE050E061E089E895E00E94BC
:1024C000FD1067EC71E089E895E00E9458124AE03F
:1024D00050E060E089E895E00E94FD1067EC71E053
:1024E00089E895E00E94581280E00C94041185ED73
:1024F0008093BC008091610590916205A091630575
:10250000B09164050796A11DB11D23E0B695A7956E
:10251000979587952A95D1F72091BC0024FD03C09B
:1025200010925F0508954091610550916205609198
:10253000630570916405452B462B472B69F3009783
:10254000A105B10541F025E32A95F1F700000197B7
:10255000A109B109E1CF809160050C94DE0AFC016C
:10256000808191810C94CF38CF92DF92EF92FF92CD
:102570000F931F93CF93DF9300D0CDB7DEB76C01DD
:102580007C0103E010E01A830983CE0101960E94CA
:10259000AF12F70181937F010F5F1F4F07301105C5
:1025A00091F7C6010F900F90DF91CF911F910F917E
:1025B000FF90EF90DF90CF900895AF92BF92CF92AF
:1025C000DF92EF92FF920F931F93CF93DF9300D090
:1025D000CDB7DEB76C015B0160E87BE089E895E090
:1025E0000E94030810E000E00A151B050CF042C031
:1025F0007801EC0CFD1CFA82E982CE0101960E9462
:10260000AF12803128F460E389E895E00E94FC076E
:102610000F5F1F4FFA82E982CE0101960E94AF122E
:1026200040E150E0682F89E895E00E94FD1068EDD8
:1026300071E089E895E00E945812C80187709927D7
:10264000892B31F468ED71E089E895E00E94581219
:10265000C8018F709927892B39F66EE77BE089E8EE
:1026600095E00E9403086CE77BE089E895E00E9412
:102670000308BACF0F900F90DF91CF911F910F9168
:10268000FF90EF90DF90CF90BF90AF9008950F93A1
:102690001F93CF93DF9300D000D0CDB7DEB78C016E
:1026A0001A821982CE0101960E94AF128F3411F561
:1026B00081E090E09A838983CE0101960E94AF1257
:1026C0008534C1F482E090E09A838983CE0101963B
:1026D0000E94AF128D3471F481E00115110559F09B
:1026E000CE0101960E94B41281E02B813C8120171B
:1026F000310709F080E00F900F900F900F90DF915D
:10270000CF911F910F9108951F93CF93DF93EC0109
:10271000162F0E94AF12811729F0612F88819981AD
:102720000E94D738CE01DF91CF911F910895CF92AB
:10273000DF92EF92FF920F931F93CF93DF9300D01E
:10274000CDB7DEB76C017C0103E010E01A8309838A
:10275000F70161917F01CE0101960E9484130F5F02
:102760001F4F0730110591F7C6010F900F90DF91B1
:10277000CF911F910F91FF90EF90DF90CF90089530
:102780004F925F926F927F928F929F92AF92BF9281
:10279000CF92DF92EF92FF921F93CF93DF93C82FD8
:1027A00060910F017091100190E080E00E94B037BD
:1027B0006B017C018091110190911201019618E644
:1027C000189FB001199F700D1124072E000C880B63
:1027D000990B0E94B2372BED3FE049EC50E40E9488
:1027E0001138A70196010E94113820E034E244E735
:1027F00059E40E94D8394B015C01D0E0CE0101962A
:10280000189FB001199F700D1124072E000C880B22
:10281000990B0E94B237A70196010E94113820E05F
:1028200034E244E759E40E94D8396B017C01CC0FB3
:10283000DD1FCC0FDD1FFE01E85EFE4F20E030E023
:1028400044EB53E460817181828193810E94D83985
:102850009B01AC01C701B6010E9467392BED3FE037
:1028600049EC50E40E9411382B013C010E94183BB6
:102870006B017C01C501B4010E94183B9B01AC01B6
:10288000C701B6010E94D8396B017C01FE01E251FB
:10289000FE4FC082D182E282F382C301B2010E9464
:1028A000D3392B013C01C501B4010E94D3399B01EE
:1028B000AC01C652DE4FC701B6010E9411389B0120
:1028C000AC01C301B2010E946639688379838A83AF
:1028D0009B83DF91CF911F91FF90EF90DF90CF907E
:1028E000BF90AF909F908F907F906F905F904F9030
:1028F00008952F923F924F925F926F927F928F92A4
:102900009F92AF92BF92CF92DF92EF92FF920F937E
:102910001F93CF93DF93CDB7DEB7CD57D1090FB655
:10292000F894DEBF0FBECDBF8091BC028823E1F0DA
:102930001092BC0280910A048823B1F01091060124
:1029400017FD08C061E0812F0E941A0761E0812F06
:102950000E94EC060E94EC0560E08CEC0E9455069B
:1029600061E084E40E945506C090EC03CAAACC2022
:1029700009F48BC61092EC03F89420911101309168
:10298000120190E080E0821793070CF060C0FC0118
:10299000ED5FFB4F4081411158C0FC0143E0EE0F59
:1029A000FF1F4A95E1F7DF01AC56BD4F1C9211960F
:1029B0001C92119712961C92129713961C921397C1
:1029C00014961C92149715961C92159716961C92A5
:1029D000169717961C92DF01A459BD4F1C921196B1
:1029E0001C92119712961C92129713961C92139791
:1029F00014961C92149715961C92159716961C9275
:102A0000169717961C92DF01AC5BBD4F1C92119676
:102A10001C92119712961C92129713961C92139760
:102A200014961C92149715961C92159716961C9244
:102A3000169717961C92E45EFD4F10821182128247
:102A40001382148215821682178201969CCF04E6A7
:102A500016E0F12CE12C9BEFC92E97E0D92E26E150
:102A6000B22ED80111968C911197882369F18C911F
:102A70008823B9F062E014968C910E941A076BEDDE
:102A80007CE080916906E114F10421F06EED7CE0B8
:102A900080917F060E94A90617C0EE24E394F12CD2
:102AA000E0CFF8018581823060F4E82FF0E08130DA
:102AB00009F4D4C4E898EE0FFF1FE05BFE4FD1820B
:102AC000C082D80111961C92BE9CF001BF9CF00DF3
:102AD0001124EC59F94F86859785A089B189892BF6
:102AE0008A2B8B2BC9F04685578560897189D8015F
:102AF0001A964D905D906D907C901D97440D551DDC
:102B0000661D771D1A964D935D936D937C931D976B
:102B100016861786108A118A0A5E1F4FEA94EF28DC
:102B200009F0BBCF789420910C0230910D024091B6
:102B30000E0250910F02609110027091110280916B
:102B40001202909113024090080250900902609086
:102B50000A0270900B02109114020091150230903D
:102B6000160220901702C0901802CE86D09019024B
:102B7000DC8AE0901A02E88EF0901B02FA8EC09078
:102B80001402CC8ED0901502D8A2E0901602ECA2CE
:102B9000F0901702FEA2C0901802CAA6D0901902A7
:102BA000D88AE0901A02EEA6F0901B02F8AAC09014
:102BB0000802D0900902E0900A02F0900B02CA8647
:102BC000DB86EC86FD868090080290900902A0903A
:102BD0000A02B0900B020E94863A6B017C01C3018D
:102BE000B2010E94B2379B01AC01C701B6010E943D
:102BF000D8396B017C01212F302F432D522D6E854A
:102C00007C89888D9A8D0E94803A2B013C012C8D05
:102C100038A14CA15EA16AA578898EA598A90E94C9
:102C2000803A9B01AC01C301B2010E9411382B0113
:102C30003C016A857B858C859D850E94B2379B010E
:102C4000AC01C301B2010E94D8392B013C01C5017E
:102C5000B4010E94B2379B01AC01C301B2010E94D2
:102C6000D8399B01AC01C701B6010E9466390E94A8
:102C7000263BC0904001D0904101E0904201F0908D
:102C80004301CC8EDD8EEE8EFF8EA70196010E9451
:102C9000113868A379A38AA39BA360933804709327
:102CA000390480933A0490933B04E0901101F09032
:102CB0001201FDA2ECA28090080290900902A0905F
:102CC0000A02B0900B026091E8037091E9038091D1
:102CD000EA039091EB030E94B0376B017C01ACA139
:102CE000BDA11196A50194010E9455390E94B237E9
:102CF0009B01AC01C701B6010E94D8396C8B7D8B5A
:102D00008E8B9F8B60910F017091100190E080E09D
:102D10000E94B0372C893D894E895F890E94113805
:102D200060933C0470933D0480933E0490933F0471
:102D3000F09040042C96FFAE2C97C0904801D090A4
:102D40004901E0904A01F0904B016096CCAEDDAEB7
:102D5000EEAEFFAE6097C0900B01D0900C01E090FA
:102D60000D01F0900E01CAA6DBA6ECA6FDA624E29A
:102D700034E0398F288F4FEE53E05B8F4A8F8AE122
:102D800094E09F878E87A1E4B4E0BB87AA87EAED31
:102D9000F1E0FEABEDAB2EEE31E03CAB2BAB4CE209
:102DA00051E059AB48AB85E594E09FA78EA7312C45
:102DB000212CCCA0DDA02C143D040CF07DC3B1016E
:102DC000A3E0660F771FAA95E1F7FB01EC56FD4FD4
:102DD000D0806196DFAE6197E1806296EFAE629738
:102DE000F2806396FFAE6397C3806496CFAE64971C
:102DF000D4806596DFAE6597E5806696EFAE669700
:102E0000F6806796FFAE6797C7806896CFAE6897E3
:102E1000ADA9BEA9CD90DD90ED90FD90BEABADAB60
:102E2000CFAAD8AEE9AEFAAEFB01E459FD4FC0809F
:102E30006996CFAE6997D1806A96DFAE6A97E280D5
:102E40006B96EFAE6B97F3806C96FFAE6C97C48079
:102E50006D96CFAE6D97D5806E96DFAE6E97E6809D
:102E60006F96EFAE6F97F780A096FFAEA097ABA9D5
:102E7000BCA9CD90DD90ED90FD90BCABABABCBAEE3
:102E8000DCAEEDAEFEAEC0900802D0900902E0903C
:102E90000A02F0900B022396CCAEDDAEEEAEFFAE92
:102EA0002397D0901402A196DFAEA197E09015026F
:102EB000A296EFAEA297F0901602A396FFAEA3974C
:102EC000C0901702A496CFAEA497D0901802A596F2
:102ED000DFAEA597E0901902A696EFAEA697F09008
:102EE0001A02A796FFAEA797C0901B02A896CFAE76
:102EF000A8979B01245E3D4F7901D901BC91A99609
:102F0000BFAFA997F901F181AA96FFAFAA97D9019E
:102F10001296BC91AB96BFAFAB97F901F381AC961B
:102F2000FFAFAC97D9011496BC91AD96BFAFAD97EA
:102F3000F901F581AE96FFAFAE97D9011696BC9117
:102F4000AF96BFAFAF97F901F781E096FFAFE0977B
:102F5000209108023091090240910A0250910B021F
:102F600027962CAF3DAF4EAF5FAF279780910802F9
:102F700090910902A0910A02B0910B022B968CAF9E
:102F80009DAFAEAFBFAF2B97A8A9B9A92D913D9129
:102F90004D915D91B9ABA8AB2EA33FA348A759A70C
:102FA000DB01AC5BBD4F2C9111963C9111971296B1
:102FB0004C91129713965C91139714966C911497F9
:102FC00015967C91159716968C91169717969C914D
:102FD0008090080290900902A0900A02B0900B0223
:102FE000F70110810181C280E196CFAEE197D380D5
:102FF000E296DFAEE297C480E396CFAEE397D5804A
:10300000E496DFAEE497C680E596CFAEE597D7802D
:10301000E696DFAEE697C080E796CFAEE797D18021
:10302000E896DFAEE897C280E996CFAEE997D38005
:10303000EA96DFAEEA97C480EB96CFAEEB97D580E9
:10304000EC96DFAEEC97C680ED96CFAEED97D780CD
:10305000EE96DFAEEE974090080250900902609025
:103060000A0270900B02C0900802D0900902E09012
:103070000A02F0900B02C88AD98AEA8AFB8A0E9467
:10308000863A6B017C01C501B4010E94B2379B01F5
:10309000AC01C701B6010E94D8396B017C01212F18
:1030A000302FE1964FADE197E2965FADE297E39660
:1030B0006FADE397E4967FADE497E5968FADE59726
:1030C000E6969FADE6970E94803A4B015C01E79639
:1030D0002FADE797E8963FADE897E9964FADE997B2
:1030E000EA965FADEA97EB966FADEB97EC967FAD06
:1030F000EC97ED968FADED97EE969FADEE970E9413
:10310000803A9B01AC01C501B4010E9411384B010A
:103110005C01C301B2010E94B2379B01AC01C50141
:10312000B4010E94D8394B015C01688979898A8988
:103130009B890E94B2379B01AC01C501B4010E947A
:10314000D8399B01AC01C701B6010E9466390E94C3
:10315000263B9B01AC016EA17FA188A599A50E9489
:1031600011386B017C01AEA5BFA5CD92DD92ED9229
:10317000FD92BFA7AEA7AA8DBB8D2D913D914D911C
:103180005C91288B398B4A8B5B8B2C96BFAD2C972F
:10319000BB2309F46DC161962FAD619762963FAD77
:1031A000629763964FAD639764965FAD649765963B
:1031B0006FAD659766967FAD669767968FAD67979B
:1031C00068969FAD68970E94803A2FA938AD49ADA7
:1031D0005AAD0E9411384B015C0169962FAD699779
:1031E0006A963FAD6A976B964FAD6B976C965FADE5
:1031F0006C976D966FAD6D976E967FAD6E976F966F
:103200008FAD6F97A0969FADA0970E94803A2BAD8F
:103210003CAD4DAD5EAD0E9411389B01AC01C501C6
:10322000B4010E9467394B015C0123966CAD7DAD02
:103230008EAD9FAD23970E94B2379B01AC01C501B3
:10324000B4010E94D8394B015C01A1962FADA19722
:10325000A2963FADA297A3964FADA397A4965FAD5C
:10326000A497A5966FADA597A6967FADA697A796AE
:103270008FADA797A8969FADA8970E94803A2B0183
:103280003C01A9962FADA997AA963FADAA97AB96F8
:103290004FADAB97AC965FADAC97AD966FADAD97BC
:1032A000AE967FADAE97AF968FADAF97E0969FADE0
:1032B000E0970E94803A9B01AC01C301B2010E94D9
:1032C00011382B013C0127966CAD7DAD8EAD9FADC5
:1032D00027970E94B2379B01AC01C301B2010E9443
:1032E000D8392B013C012B966CAD7DAD8EAD9FADD9
:1032F0002B970E94B2379B01AC01C301B2010E941F
:10330000D8399B01AC01C501B4010E9466392C8DEE
:103310003D8D4E8D5F8D0E9411382EA13FA148A595
:1033200059A50E9411384B015C01A701960168A1C3
:1033300079A18AA19BA10E9411389B01AC01C50112
:10334000B4010E94D8396B017C0126E636E646E8D6
:103350005FE30E94133B18160CF482C026E636E6A3
:1033600046E85FEBC701B6010E94AB3787FD78C026
:10337000A7019601C701B6010E94663B811170C08A
:10338000EA85FB85C082D182E282F38220E030E0D0
:1033900040E05FE3C501B4010E9467390E944A3AE8
:1033A000EE85FF85718360832AA53BA54CA55DA5AD
:1033B000C501B4010E9411382C893D894E895F896D
:1033C0000E94D839288939894A895B890E946739DE
:1033D0006B017C0120E030E041E655E40E94D839E1
:1033E0000E944A3AA88DB98D0D911D912D913D9164
:1033F000B98FA88FFD013497072E000C880B990B0D
:10340000060F171F281F391F008311832283338360
:103410000E94B23720E030E041E655E40E941138C6
:103420009B01AC01C701B6010E946639EA8DFB8D94
:103430006193719381939193FB8FEA8FFFEF2F1A22
:103440003F0A2E853F852E5F3F4F3F872E874A8557
:103450005B854C5F5F4F5B874A87ABCCE9982BCB92
:10346000AA85BB851D921D921D921C9213978ECF2B
:1034700060962CAD3DAD4EAD5FAD60970E941138AA
:103480006B017C01AA85BB851D921D921D921C9229
:10349000139720E030E040E05FE30E9467390E942C
:1034A0004A3AEE85FF85718360832AA53BA54CA52A
:1034B0005DA5C701B6017ECF40900A04442009F4FF
:1034C000E4C0512C3E015AE0650E711CF0EC8F2EC9
:1034D000F6E79F2E80910D045816A8F090911701E1
:1034E000282F30E0220F331FE091DC03F091DD0341
:1034F000E20FF31F20E335E7891708F0BEC02193E0
:1035000031938F5FF9CF2DEC3CEC4CE45EE360919E
:103510000B0170910C0180910D0190910E010E94A0
:10352000AB37052D10E087FF0CC0000F111FE09195
:10353000DC03F091DD03E00FF11F91828082539450
:10354000C9CF0E94EC05882381F3C0900B04D09072
:103550000C04C80163E0880F991F6A95E1F7C80E53
:10356000D91ED6018C91882301F360E085E50E9485
:1035700055067601B8E0EB0EF11C60E0F601819192
:103580006F010E945506CE14DF04B9F760E08EEBA0
:103590000E9455069E012F5F3F4F7901690158E057
:1035A000A52EB12C312C222423940E948406811153
:1035B0003228220C31E0A31AB108B9F7D6013D92A6
:1035C0006D01A615B70559F729E0E0E0215099F003
:1035D000D7018D917D018E27E82FEF70F0E0EA573B
:1035E000FF4F9491E82FE295EF70F0E0EA56FF4F1D
:1035F000E491E927EBCF89858E1336C089819A81C2
:10360000B6E0B89F9001B99F300D1124959587952C
:1036100095958795820F931F2D81211102C080EC13
:1036200096E72F812C3021F48433E1E29E07F9F0F4
:10363000803CF6E79F0731F09C0124583A4E213533
:103640003644C0F4000F111F2091DC033091DD03DC
:10365000020F131FD8018D939C9361E070E080E00E
:1036600090E00E94BB076BCF80EC96E7D5CF80EC53
:1036700096E7E8CF88EF95E7E5CF60E08091060117
:103680000E94EC06109203024AAA8AA9C358DF4F8F
:103690000FB6F894DEBF0FBECDBFDF91CF911F9163
:1036A0000F91FF90EF90DF90CF90BF90AF909F90E1
:1036B0008F907F906F905F904F903F902F900895E4
:1036C0001F920F920FB60F9211242F933F938F9357
:1036D0009F93AF93BF938091290590912A05A09164
:1036E0002B05B0912C053091280523E0230F2D37B1
:1036F00058F50196A11DB11D209328058093290539
:1037000090932A05A0932B05B0932C0580912D054D
:1037100090912E05A0912F05B09130050196A11D25
:10372000B11D80932D0590932E05A0932F05B09386
:103730003005BF91AF919F918F913F912F910F9045
:103740000FBE0F901F90189526E8230F0296A11D1B
:10375000B11DD2CF1F920F920FB60F9211242F934B
:103760003F934F935F936F937F938F939F93AF9309
:10377000BF93EF93FF93E0915201F09153010995AC
:10378000FF91EF91BF91AF919F918F917F916F9139
:103790005F914F913F912F910F900FBE0F901F900F
:1037A00018951F920F920FB60F9211242F933F93EB
:1037B0004F935F936F937F938F939F93AF93BF9339
:1037C000EF93FF93E0915001F09151010995FF9122
:1037D000EF91BF91AF919F918F917F916F915F9189
:1037E0004F913F912F910F900FBE0F901F90189502
:1037F0001F920F920FB60F9211242F933F934F9366
:103800005F936F937F938F939F93AF93BF93EF9348
:10381000FF9389E895E00E94090AFF91EF91BF911B
:10382000AF919F918F917F916F915F914F913F9158
:103830002F910F900FBE0F901F9018951F920F920F
:103840000FB60F9211242F938F939F93EF93FF93B3
:10385000E0919905F0919A058081E0919F05F091A2
:10386000A00582FD1BC090818091A2058F5F8F73A0
:103870002091A305821741F0E091A205F0E0E757FF
:10388000FA4F958F8093A205FF91EF919F918F91B1
:103890002F910F900FBE0F901F9018958081F4CF3D
:1038A0001F920F920FB60F9211242F933F934F93B5
:1038B0005F936F937F938F939F93AF93BF93EF9398
:1038C000FF938091B900887F803609F44AC0F0F5F3
:1038D000883209F4A7C018F5803109F49BC0B8F408
:1038E000882309F4F9C0883009F494C0FF91EF915E
:1038F000BF91AF919F918F917F916F915F914F9108
:103900003F912F910F900FBE0F901F901895883107
:1039100009F488C0803251F780935D0514C080346B
:1039200009F49DC040F48033B9F38833F9F68093ED
:103930005D0585ECB0C0803509F485C0883509F493
:1039400096C0883499F60E947712D0CF883909F44E
:103950008CC038F5883729F050F4883611F080375C
:1039600029F683E080935F051092DA0357C0883808
:1039700009F47BC0803919F0803809F0B7CF809105
:10398000DA03803208F071C0E091DA0381E08E0F33
:103990008093DA038091BB00F0E0E654FC4F808313
:1039A0003DC0803B39F0E0F4803A09F479C0883AB0
:1039B00009F09CCF84E080935F051092B9031092C8
:1039C000B803E091DE03F091DF0309958091B8031D
:1039D00081110FC081E08093B8031092980309C051
:1039E000803C09F4A6CF883C09F4A3CF883B09F0BA
:1039F0007DCFE091B90381E08E0F8093B903F0E0B1
:103A0000E856FC4F80818093BB009091B903809170
:103A1000B80329C080913A058093BB0085EC809360
:103A2000BC0064CF90915C0580915B05981758F5B8
:103A3000E0915C0581E08E0F80935C05F0E0E55C31
:103A4000FA4F8081E9CFE0915C0581E08E0F809391
:103A50005C058091BB00F0E0E55CFA4F80839091BB
:103A60005C0580915B059817C8F285E8D8CFE09196
:103A70005C0581E08E0F80935C058091BB00F0E0D7
:103A8000E55CFA4F808380915E0581115CCF81E017
:103A90008093390584EA8093BC0010925F0526CF9D
:103AA00085EC8093BC0010925F058091DA03803230
:103AB00030F4E091DA03F0E0E654FC4F10826091BC
:103AC000DA0370E0E091E003F091E1038AEB93E028
:103AD00009951092DA030ACF10925D0534CF1F9238
:103AE0000F920FB60F9211242F923F924F925F9236
:103AF0006F927F928F929F92AF92BF92CF92DF92FE
:103B0000EF92FF920F931F932F933F934F935F93E7
:103B10006F937F938F939F93AF93BF93EF93FF9395
:103B2000CF93DF9300D01F92CDB7DEB740907800DF
:103B30005090790080917603E2E0E80F2091110126
:103B400030911201E217130621F01CF0E1E0E80FBA
:103B5000E21BF0E0E050FF4F8081805C80937C00AE
:103B60008091E4039091E503A091E603B091E7030F
:103B70000196A11DB11D8093E4039093E503A093EA
:103B8000E603B093E703809176038111D3C280915D
:103B900074039091750390937303809372038091E3
:103BA000620690916306969587959201281B390BC2
:103BB0003093750320937403809170039091710387
:103BC000AC015695479556954795841B950BA901D1
:103BD00037FF04C044275527421B530B840F951F02
:103BE000909371038093700341E06091600670913F
:103BF00061066817790708F040E040934004121608
:103C000013060CF0B5C081E090E090936F038093B1
:103C10006E0320916E0330916F0380915803909151
:103C200059032817390709F4A8C0809102028F5F51
:103C30008093020280910202833030F010920202DF
:103C400030935B0320935A038091C1028823B1F023
:103C500087E080937A0080917A00806880937A0070
:103C600080917A0080937A0080917A0080937A0024
:103C700080917A0080937A001092C10260905A037A
:103C800070905B03209111013091120180914004EA
:103C9000882309F481C3809158039091590341E02E
:103CA0006416710409F0D2C1019709F4D5C180915D
:103CB000BF029091C00201969093C0028093BF0210
:103CC00040910A01442309F47BC0409108015091BE
:103CD00009018417950708F473C010920A01109225
:103CE000C0021092BF0206E2E02E03E0F02EAEEF1B
:103CF000B2E006ED12E042EC52E090E080E0821784
:103D00009307F4F5F7011082118212821382148254
:103D1000158216821782F8E0EF0EF11C1C921196A4
:103D20001C92119712961C92129713961C9213973D
:103D300014961C92149715961C92159716961C9221
:103D4000169717961C9217971896F80110821182F1
:103D5000128213821482158216821782085F1F4F07
:103D6000FA011192119211921192AF010196C7CFEF
:103D700010926F0310926E034CCF109202025ACF32
:103D80001092600310926103109262031092630319
:103D900010926403109265031092660310926703F9
:103DA00010925C0310925D0310925E0310925F0309
:103DB00010926A0310926B0310926C0310926D03C1
:103DC0008091BF029091C0024091BD025091BE020D
:103DD0008417950739F440910A01411103C041E06D
:103DE0004093BC024091ED035091EE038417950778
:103DF00008F432C180910A0181112EC11092C002D3
:103E00001092BF0266E273E07B836A83AEEFB2E09A
:103E100016ED212E12E0312E62EC72E050E040E00F
:103E2000421753070CF0A0C0EA81FB81808091808B
:103E3000A280B380C480D580E680F7803896FB836B
:103E4000EA83CA01E3E0880F991FEA95E1F78C0144
:103E50000C561D4FF80180829182A282B382C482E7
:103E6000D582E682F7828C9011969C9011971296DB
:103E7000AC9012971396BC9013971496CC9014970D
:103E80001596DC9015971696EC9016971796FC9061
:103E9000179718968C0104591D4FF8018082918262
:103EA000A282B382C482D582E682F7820A811B8114
:103EB00008501109F80110821182128213821482B3
:103EC0001582168217828D0108501109F80110829F
:103ED0001182128213821482158216821782F101D6
:103EE00080809180A280B380C480D580E680F780F6
:103EF000F8E02F0E311C8C010C5B1D4FF801808205
:103F00009182A282B382C482D582E682F782810145
:103F100008501109F8011082118212821382148252
:103F2000158216821782FB0181909190A190B19029
:103F3000BF0175016401FF0CCC08DC2C7601845EA6
:103F40009D4FFC0180829182A282B382C482C5828D
:103F5000C682C782CB010497FC01108211821282B3
:103F600013824F5F5F4F5CCF80915C0390915D0344
:103F7000A0915E03B0915F03AC01BD01770F440BCC
:103F8000542FBA018093140290931502A093160245
:103F9000B0931702409318024093190240931A02FB
:103FA00040931B0270916003609161035091620322
:103FB00040916303309164032091650390916603FF
:103FC0008091670370930C0260930D0250930E0270
:103FD00040930F023093100220931102909312022B
:103FE0008093130210926003109261031092620397
:103FF000109263031092640310926503109266039B
:104000001092670310925C0310925D0310925E039E
:1040100010925F0380916A0390916B03A0916C03EF
:10402000B0916D038093080290930902A0930A0255
:10403000B0930B0210926A0310926B0310926C0300
:1040400010926D0381E08093EC0306C0892B21F070
:10405000109269031092680380916A0390916B0338
:10406000A0916C03B0916D030196A11DB11D8093C9
:104070006A0390936B03A0936C03B0936D038091DC
:104080006803909169030196909369038093680394
:10409000E0917403F09175039F01DF010E9446399E
:1040A0006B017C01FF0CCC08DC2C76019B01AC0180
:1040B0006C2D7C2D8C2D9C2DA0906003B090610305
:1040C000C0906203D0906303E0906403F0906503B6
:1040D00000916603109167030E945D39209360038D
:1040E00030936103409362035093630360936403CE
:1040F000709365038093660390936703CF01FF0F6E
:10410000AA0BBB0B40915C0350915D0360915E0371
:1041100070915F03840F951FA61FB71F80935C03E8
:1041200090935D03A0935E03B0935F037092590375
:1041300060925803E0917603E9832090110130905A
:104140001201EE2309F4F8C08E2E912C28143904A4
:104150000CF4F2C0F1E08F1A9108F401ED5FFB4F0F
:1041600046E0441651040CF492C281E08083F401CD
:10417000EE0FFF1FE25BFC4F809162069091630699
:104180009695879560807180681A790AF40133E00A
:10419000EE0FFF1F3A95E1F7BF016A5D7C4F7B830D
:1041A0006A83A0917203B091730393010E94463910
:1041B0006B017C01FF0CCC08DC2C76019B01AC016F
:1041C0006C2D7C2D8C2D9C2DAA81BB81AC901196E1
:1041D000BC9011971296CC9012971396DC9013977F
:1041E0001496EC9014971596FC90159716960C91D2
:1041F000169717961C9117970E945D392C9311966C
:104200003C93119712964C93129713965C931397C5
:1042100014966C93149715967C93159716968C9319
:10422000169717969C93BF0162507D4F7B836A83DC
:10423000A0917403B091750393010E9446396B01FC
:104240007C01FF0CCC08DC2C76019B01AC016C2DB1
:104250007C2D8C2D9C2DAA81BB81AC901196BC909D
:1042600011971296CC9012971396DC901397149690
:10427000EC9014971596FC90159716960C9116973E
:1042800017961C9117970E945D392C9311963C93B9
:10429000119712964C93129713965C93139714965A
:1042A0006C93149715967C93159716968C93169786
:1042B00017969C93EA52FD4F9301D3010E94463911
:1042C0006B017C01FF0CCC08DC2C76019B01AC015E
:1042D0006C2D7C2D8C2D9C2DA080B180C280D38034
:1042E000E480F580068117810E945D392083318347
:1042F000428353836483758386839783F401EE0F2F
:10430000FF1FEE0FFF1FEE53FD4FC301770CAA0BEB
:10431000BB0B4081518162817381840F951FA61F61
:10432000B71F80839183A283B383F401EE0FFF1F35
:10433000E25BFC4F5182408289818F5F80937603DC
:104340008215130419F014F0109276030F900F9059
:104350000F90DF91CF91FF91EF91BF91AF919F911E
:104360008F917F916F915F914F913F912F911F910D
:104370000F91FF90EF90DF90CF90BF90AF909F9004
:104380008F907F906F905F904F903F902F900F9005
:104390000FBE0F901F9018954091E4035091E503D4
:1043A0006091E6037091E703809104029091050209
:1043B000A0910602B091070284179507A607B707D8
:1043C00048F480910302811105C081E08093BC0212
:1043D000809303024091E4035091E5036091E6036A
:1043E0007091E7038091E8039091E903A091EA03BB
:1043F000B091EB0384179507A607B70708F02CCEFA
:104400001092E4031092E5031092E6031092E70382
:1044100081E080930A011092C0021092BF0266E20E
:1044200073E07B836A831EEF212E12E0312EE6EDCE
:10443000F2E062EC72E050E040E0421753070CF00B
:10444000D7C0CA01A3E0880F991FAA95E1F78C0194
:104450000C561D4FD8011C9211961C921197129662
:104460001C92129713961C92139714961C921497F1
:1044700015961C92159716961C92169717961C92D5
:104480008C0104591D4FD8011C9211961C92119752
:1044900012961C92129713961C92139714961C92C4
:1044A000149715961C92159716961C9216971796A8
:1044B0001C92AA81BB811C9211961C921197129694
:1044C0001C92129713961C92139714961C92149791
:1044D00015961C92159716961C92169717961C9275
:1044E00017971896BB83AA83D1011C9211961C9230
:1044F000119712961C92129713961C92139714966A
:104500001C92149715961C92159716961C92169746
:1045100017961C92B8E02B0E311C80809180A280EF
:10452000B380C480D580E680F78038968C010C5B20
:104530001D4FD8018C9211969C9211971296AC92B5
:1045400012971396BC9213971496CC9214971596C3
:10455000DC9215971696EC9216971796FC927F01AF
:10456000B8E0EB1AF108D7011C9211961C92119732
:1045700012961C92129713961C92139714961C92E3
:10458000149715961C92159716961C9216971796C7
:104590001C92DB018D909D90AD90BD90BD01750189
:1045A0006401FF0CCC08DC2C7601845E9D4FDC019D
:1045B0008C9211969C9211971296AC921297139628
:1045C000BC9213971496CC9214971596CC9215978B
:1045D0001696CC9216971796CC92CB010497DC01D5
:1045E0001D921D921D921C9213974F5F5F4F25CF16
:1045F0007091600360916103509162034091630385
:104600003091640320916503909166038091670364
:1046100070930C0260930D0250930E0240930F02B0
:104620003093100220931102909312028093130290
:104630001092600310926103109262031092630360
:104640001092640310926503109266031092670340
:1046500080915C0390915D03A0915E03B0915F0334
:10466000AC01BD01770F440B542FBA0180931402A3
:1046700090931502A0931602B0931702409318026C
:104680004093190240931A0240931B02BBCC108244
:104690004CCEEF92FF920F931F93CF93DF9300D0F6
:1046A000CDB7DEB710928C0510928B0588EE93E0A3
:1046B000A0E0B0E080938D0590938E05A0938F05C8
:1046C000B09390052CE831E030938A05209389055A
:1046D00025EC30E0309396052093950524EC30E0EE
:1046E000309398052093970520EC30E030939A059D
:1046F0002093990521EC30E030939C0520939B0595
:1047000022EC30E030939E0520939D0526EC30E0AE
:104710003093A00520939F051092A2051092A30547
:104720001092A4051092A505109229061092280651
:1047300080932A0690932B06A0932C06B0932D0607
:104740008EE991E090932706809326068EEF90E005
:1047500090934D0680934C0685E190E09093490636
:104760008093480684E290E0909347068093460643
:104770008BE091E090934F0680934E068FEF93E08D
:10478000909351068093500610924B0610924A0661
:104790000BE011E01A830983CE0101960E94AF124B
:1047A000780195E1E90EF11C8F3F81F110934B06E2
:1047B00000934A068FEFE81683E0F80674F5FA8254
:1047C000E982CE0101960E94AF128F3FD9F00BE033
:1047D00011E0809150069091510608171907ECF4EA
:1047E0001A8309836FEFCE0101960E948413109201
:1047F0004B0610924A068091480690914906080F90
:10480000191FE7CF95E1E90EF11CD4CF87018FEF97
:10481000E81683E0F80609F0BDCF10926406109206
:10482000650603E00093680611E0109369068EE6C2
:1048300090E0A0E0B0E080936A0690936B06A093AE
:104840006C06B0936D0610926E0610926F06109271
:1048500070061092710610927206109273061092F2
:1048600074061092750610927A0610927B060093D9
:104870007E0610937F068093800690938106A09316
:104880008206B093830610928406109285061092D9
:10489000860610928706109288061092890610925A
:1048A0008A0610928B0680E094E0909363068093D2
:1048B000620680E290E090936106809360068091AA
:1048C00054010E9456071092F0061092EF0680EBFA
:1048D00091E09093EE068093ED061092F10610920F
:1048E000F6061092F7061092F8061093900689E1EA
:1048F0008093910682ED8093920685E080939306E3
:1049000089E29CE7A6E8B3E4809394069093950629
:10491000A0939606B093970680E090E0A0E7B3E4FA
:104920008093980690939906A0939A06B0939B065D
:1049300080E090E0A8E4B2E480939C0690939D060A
:10494000A0939E06B0939F064DEC5CEC65EB72E481
:104950004093A0065093A1066093A2067093A3060D
:104960008AE999E9A9E9BFE38093A4069093A50693
:10497000A093A606B093A7064093A8065093A90655
:104980006093AA067093AB068093AC069093AD0635
:10499000A093AE06B093AF0683E393E3ABE9B0E434
:1049A0008093B0069093B106A093B206B093B3067D
:1049B0001093B4061092B6061092B5061092B70680
:1049C0001092B9061092B8061093BA061092EB0630
:1049D0000093EC060F900F90DF91CF911F910F91F4
:1049E000FF90EF900895CF93DF93CDB7DEB76E972A
:1049F0000FB6F894DEBF0FBECDBF789484B5826049
:104A000084BD84B5816084BD85B5826085BD85B572
:104A1000816085BD80916E00816080936E001092F0
:104A2000810080918100826080938100809181006B
:104A300081608093810080918000816080938000FC
:104A40008091B10084608093B1008091B00081605A
:104A50008093B00080917A00846080937A00809186
:104A60007A00826080937A0080917A0081608093DE
:104A70007A0080917A00806880937A001092C10059
:104A800061E089E00E941A0761E089E00E94EC067B
:104A900062E088E00E941A0761E085E00E941A0740
:104AA00060E085E00E94EC06E0919905F0919A059E
:104AB00082E08083E0919505F09196051082E09167
:104AC0009705F091980583E380831092A105E0910A
:104AD0009D05F0919E0586E08083E0919B05F09115
:104AE0009C05808180618083E0919B05F0919C050D
:104AF000808188608083E0919B05F0919C05808196
:104B000080688083E0919B05F0919C0580818F7D7A
:104B100080836DEB70E089E895E00E9403080E94B5
:104B20005A1286EA90E00E94A21080E190E00E9472
:104B300047138823F9F0CE0101960E94B412E98050
:104B4000FA80F7FC17C023E0E20EF11CB0E9CB2E8F
:104B5000B6E0DB2E07E010E01E870D87CE010D9634
:104B60000E94AF12D6018D936D010F5F1F4F0E157E
:104B70001F0590F360ED77E080E090E00E94BB07B6
:104B80008091940690919506A0919606B091970613
:104B9000109200018093400190934101A093420143
:104BA000B09343014091A4065091A5066091A606DA
:104BB0007091A706E09108048E2F90E09C01220FCF
:104BC000331F220F331FD901A45DBE4FC090A00632
:104BD000D090A106E090A206F090A306CD92DD92BF
:104BE000ED92FC921397285E3E4FD9014D935D9351
:104BF0006D937C9313978D5F9B4F41E0DC014C9349
:104C0000E0930F0451E05E0F852F90E0DC01A0508F
:104C1000BF4F4C93C090AC06D090AD06E090AE066E
:104C2000F090AF069C01220F331F220F331FD901D2
:104C3000A45DBE4F8090A8069090A906A090AA06F9
:104C4000B090AB068D929D92AD92BC921397285E68
:104C50003E4FD901CD92DD92ED92FC9213978D5F7C
:104C60009B4FDC014C9350931004EE5FE0930804DB
:104C7000F0E0E050FF4F82E0808383E393E3A3E51D
:104C8000B0E48093440190934501A0934601B09312
:104C9000470160919C0670919D0680919E069091BF
:104CA0009F060E94513A7093100160930F0190E0AB
:104CB00080E00E94B03720910B0130910C014091AF
:104CC0000D0150910E010E9411380E94513A7093CB
:104CD000EE036093ED030E94EC0C10E08091110153
:104CE00090911201181719062CF4812F0E94C013FD
:104CF0001F5FF4CF8091980690919906A0919A0633
:104D0000B0919B068093480190934901A0934A017A
:104D1000B0934B018091B4068093640681E0809348
:104D2000650693E090936806809369064091B50606
:104D30005091B606052E000C660B770B40936A0661
:104D400050936B0660936C0670936D062091B706C6
:104D500020937A0680937B0690937E0680937F064D
:104D60004093800650938106609382067093830679
:104D700094E0909354019FEF909306019FE59093E8
:104D800007012BEB36E030930C0420930B04809347
:104D9000DB0381E794E09093DD038093DC0386E0FE
:104DA00080931701E0904A06F0904B06E114F1045D
:104DB00009F484C102E316E0F701E153F6406F0104
:104DC0009601200F311F80914806909149068E0D63
:104DD0009F1D2817390754F43A832983CE01019681
:104DE0000E94AF12D8018D938D01EACFC090320698
:104DF000D0903306E0903406F090350600913606E8
:104E000010913706209138063091390640913A06C4
:104E100050913B0660913C0670913D0680913E06A4
:104E200090913F06A0914006B0914106C0922404A3
:104E3000D0922504E0922604F092270400932804DF
:104E40001093290420932A0430932B0440936E0678
:104E500050936F066093700670937106809384067A
:104E600090938506A0938606B09387068091BA0634
:104E70000E942A0F8AE090E0909309018093080134
:104E800060E070E080E09FE30E945A0D1092E3031F
:104E90001092E20310926605109288050E94C00AE3
:104EA00089EF97E09093DF038093DE038AEF97E02A
:104EB0009093E1038093E0038091130111E010933C
:104EC0006505809387050E94FF0A882309F403C1C2
:104ED00080911501109365058093870510926605F2
:104EE000109288050E94FF0A882309F408C189EC02
:104EF00090E00E94A21080E090E080936F04909375
:104F00007004188A1F8640EB51E05E874D87898BBD
:104F100020E12E8B92E09F8B188E1C821B825A837D
:104F200049838D832A879B871C861092E303109206
:104F3000E20310926605109288050E94C00A89EF6C
:104F400097E09093DF038093DE038AEF97E09093DE
:104F5000E1038093E0031E828B85823010F098E09D
:104F60009E83898762E370E080E090E00E94BB0747
:104F70006C85CE0101960E946C0C68EE73E080E0B7
:104F800090E00E94BB0760E3CE0101960E941F10D3
:104F90000BE416E4C8010197F1F760E3CE01019636
:104FA0000E941F10C8010197F1F760E3CE0101963E
:104FB0000E941F1083E592E00197F1F760E2CE01B5
:104FC00001960E941F106E81606240E0CE01019642
:104FD0000E94381084E08F8340E06CE0CE0101969F
:104FE0000E943810CE0101960E947E1082E08887D0
:104FF00040E066E0CE0101960E94381040E062E099
:10500000CE0101960E9438108BE39FE10197F1F7E2
:1050100088E08C8760E0CE0101960E946C0C66EF00
:1050200070E0CE0101960E9403084AE050E061E082
:10503000CE0101960E94FD1067EC71E0CE01019651
:105040000E9458124AE050E060E0CE0101960E94B2
:10505000FD1067EC71E0CE0101960E9458124AE003
:1050600050E060E0CE0101960E94FD1061E0CE01AB
:1050700001960E944F1068EE70E0CE0101960E94EA
:10508000030860ED77E080E090E00E94BB0781E0DC
:1050900080936E04809108048823A1F1282F30E0CA
:1050A00030931201209311018F5F90E0853050F50D
:1050B000FC01ED5FFB4F10820196F8CF80E090E09D
:1050C000DC0140E050E0BA0100E010E09801C12CA2
:1050D000D12C7601ABCE03E111E067ED70E089E8F9
:1050E00095E00E94030860E170E0F8018081918101
:1050F0000E944F11D8018C9111969C91FECE05E132
:1051000011E0EBCF8090440190904501A0904601C2
:10511000B0904701609162067091630690E080E074
:105120000E94B0372B013C01209140013091410198
:105130004091420150914301C501B4010E941138D0
:10514000A30192010E94D8396093400170934101FC
:1051500080934201909343010CE2E02E01E0F02E97
:105160008FEEC82E83E0D82E10E000E08091110170
:105170009091120108171907FCF4F7012081318181
:1051800042815381C501B4010E941138A3019201EB
:105190000E94D839D7016D937D938D939D937D01A6
:1051A000802F0E94C013F601119211921192119258
:1051B0006F010F5F1F4FDACF8BED9CE09093670676
:1051C000809366068EED9CE090937D0680937C062E
:1051D00081E080930A011092E4031092E50310929B
:1051E000E6031092E70387E080937A0080917A00CB
:1051F000806880937A0080917A00806280937A0040
:1052000080917A00886080937A0080917A0080642F
:1052100080937A007894C0900B01D0900C01E090BC
:105220000D01F0900E0160910F017091100190E05E
:1052300080E00E94B037A70196010E9411380E94B9
:10524000513A7093EE036093ED031092EC0320E06B
:1052500034E244E759E4C701B6010E94113820E066
:1052600030E040ED52E40E94D8390E94513A6093F8
:10527000E8037093E9038093EA039093EB03809132
:105280006406882359F062E0809168060E941A073C
:105290006BED7CE0809169060E94A90680917A06F8
:1052A000882359F062E080917E060E941A076EED15
:1052B0007CE080917F060E94A9060E9479148823D1
:1052C000E1F36091B0067091B1068091B2069091C1
:1052D000B3060E945A0D80916F041C821B8220EB42
:1052E00031E03A8329838D8380E18A8782E08B874E
:1052F0001C86CE0101960E947E1088E08C8760E0BB
:10530000CE0101960E946C0C8091400464E471E02F
:10531000811102C064E371E0CE0101960E9403088E
:1053200060EA7FE080E090E00E94BB07CE0101963A
:105330000E947E1069E271E0CE0101960E9403088E
:105340000E94E10C4AE050E0BC01CE0101960E94AF
:10535000151161E0CE0101960E944F106CE171E0E1
:10536000CE0101960E94030860ED77E080E090E0B6
:105370000E94BB07CE0101960E947E106BE071E097
:10538000CE0101960E94030861E0CE0101960E94C1
:105390004F106FEF70E0CE0101960E94030881E08C
:1053A00080936E0464E170E080E090E00E94BB07AF
:1053B0008091900643E953E0833031F044E653E0B6
:1053C000823011F042EB51E0609192068091930699
:1053D0000E94C50DEEE3FBE08491E0E7FBE0049161
:1053E000ECE5FBE01491112301F181110E94C30649
:1053F000E12FF0E0EE0FFF1FE65BF44FA591B491B3
:105400008C91082391F060E085E00E94EC06809189
:105410002705811112C080913805803189F080E123
:105420000E945C0E0FEF1FEF72C061E085E00E94EA
:10543000EC0681E080932705EECF0C940000EBCFC3
:1054400087E20E94C20D909109048074891751F17E
:1054500080E4892780930904903421F188E10E9437
:10546000C20D90E0B3E095958795BA95E1F7877006
:105470008093340584E20E94C20D809333058FE14E
:105480000E94C20D109231058093320580E20E9485
:10549000C20D2091310530913205282B3093320511
:1054A0002093310588E20E94C20D82FFBBCF80E0CD
:1054B0000E94C20D082F10E0F12CE12CE016F1063D
:1054C0007CF480E00E94C20DF2E4EF16F10424F4B3
:1054D000F701EB51FB4F80832FEFE21AF20AEECF78
:1054E00084E20E94C20D809333058091E504282F49
:1054F000207C90913605291395CF8F7390913505B7
:10550000891729F0882319F09F3309F08BCF8091F8
:10551000EC0680FF68C0023011050CF464C081E025
:1055200080934F0100934D018091E60480934C01DC
:105530008091330590E09595879591958195910996
:1055400080934E016FE17BE089E895E00E940308BB
:1055500000914D016DE571E089E895E00E94030836
:105560004AE050E060914C0189E895E00E94FD100E
:105570006BE571E089E895E00E940308A7EEEA2E4A
:10558000A4E0FA2E12E0101798F4D7014D917D0196
:1055900050E070E060E02AE089E895E00E94B110F8
:1055A00069E571E089E895E00E9403081F5FEBCF91
:1055B00067E571E089E895E00E94030860914E017B
:1055C000062E000C770B4AE050E089E895E00E9437
:1055D000151165E571E089E895E00E9403080E94D5
:1055E0009C100E948A0E8091EC0681FF57C080912A
:1055F000E404882309F452C061E089E00E94EC06CB
:1056000068EC70E080E090E00E94BB0760E089E019
:105610000E94EC068AE19BE00E94700E4091E40437
:1056200050E070E060E02AE089E895E00E94B11067
:1056300086E19BE00E94700E1091E404E12EF12CB3
:1056400080E00E945C0E62E0610F80E80E94980D8D
:105650006091360580E80E94980D6091350580E8DC
:105660000E94980D02EA14E0C801825A94408E15F7
:105670009F053CF4F80161918F0180E80E94980D2C
:10568000F3CF8CE00E945C0E88E20E94C20D83FF83
:10569000FBCF84E00E945C0E1092E40489E895E060
:1056A0000E94E909892B11F40C94623489E895E091
:1056B0000E94E909892B11F40C94483489E895E09B
:1056C0000E94B208182F80ED810F8A30C8F481E063
:1056D000809318040E94ED076093140470931504DE
:1056E000809316049093170489E895E00E94E909D5
:1056F000892B09F4C1C089E895E00E946308F4CFC2
:105700000E94ED07C0901404D0901504E090160498
:10571000F09017046C197D098E099F09613D77404F
:105720008105910510F010921804809118048111E0
:10573000A3C0E1ECE10FEC3308F09EC00E2E000C8C
:10574000FF0BEB55F44D0C94403940343C2C3C2C71
:105750003C2C3C2C3C2C3C2C3C2C3C2C3C2C3C2C09
:105760003C2C3C2CD32D3C2C3C2C3C2C3C2C3C2C61
:105770003C2C3C2CA9333C2CD3333C2C3C2C3C2CD7
:105780003C2C3C2C3C2C3C2C3C2C3C2C3C2CE12B35
:10579000092C492C552C3C2C8B2CB12C3C2CED315C
:1057A0003C2CC52CDC2F4D31ED313C2C06323C2CF1
:1057B0002432503235333C2CCA33ED333C2C3C2C54
:1057C00001340E944E096093980670939906809365
:1057D0009A0690939B0660934801709349018093C9
:1057E0004A0190934B0180911904882309F444C025
:1057F0006DEC7AE089E895E00E94030860919806D4
:105800007091990680919A0690919B060E9445128C
:1058100033C00E94F20881E0643039F082E06830E1
:1058200021F083E0693009F080E080939006809158
:1058300019048823F1F061EC7AE089E895E00E9490
:10584000030880919006813021F48AEB9AE00E944F
:10585000A21080919006823021F483EB9AE00E949E
:10586000A21080919006833021F48CEA9AE00E9485
:10587000A21081E08093A10489E895E00E94E909E3
:10588000892B11F40C94483489E895E00E94630850
:10589000F3CF0E94F2086130710521F481E080931A
:1058A000EB06EACF1092EB06E7CF0E944E096B01A0
:1058B0007C012DEC3CEC4CEC5DE30E94AB3787FFA8
:1058C00007C0EDECCE2EECECDE2EED2CEDE3FE2E43
:1058D000C701B6010E945A0DC092B006D092B1061F
:1058E000E092B206F092B30680911904882321F267
:1058F0006BE97AE089E895E00E94030822E030E055
:10590000B701A60189E895E00E94561288E99AE05D
:105910000E94A210B1CF0E944E090E944A3A072E5F
:10592000000C880B990B0E94B23760939C06709311
:105930009D0680939E0690939F068091190488236C
:1059400009F49ACF61E97AE089E895E00E940308BA
:1059500060919C0670919D0680919E0690919F0695
:1059600055CF0E94F2086093920680911904882313
:1059700009F47FCF69E87AE089E895E00E9403089E
:10598000809192060E94041174CF0E94F208698FE0
:105990007A8F8B8F9C8FA98CBA8C0E944E096B01D9
:1059A0007C010E944E092B013C0189E895E00E9490
:1059B000E909892B29F089E895E00E946308F5CF71
:1059C00021E0A216B10409F45DC032E0A316B104CF
:1059D00009F4A0C0AB2861F5209144013091450144
:1059E0004091460150914701C701B6010E9411380C
:1059F0004B015C01609162067091630690E080E06B
:105A00000E94B0379B01AC01C501B4010E94D83996
:105A10006093400170934101809342019093430150
:105A2000C0929406D0929506E0929606F092970660
:105A300080911904882309F41FCF66E87AE089E889
:105A400095E00E9403084AE050E0698D7A8D89E86C
:105A500095E00E94151164E87AE089E895E00E94DB
:105A6000030822E030E0B701A60189E895E00E9432
:105A7000561262E87AE089E895E00E940308C301C3
:105A8000B201C4CE10910F0484E0189F10011124BC
:105A9000D101A45DBE4FBE8FAD8F209144013091E6
:105AA00045014091460150914701C701B6010E944E
:105AB00011384B015C01609162067091630690E0C1
:105AC00080E00E94B0379B01AC01C501B4010E9487
:105AD000D839ED8DFE8D6083718382839383F101CC
